S024000066745F5250495F73615F436F6E74726F6C6C65725F5333324B3134342E737265632B
S3150000000000700020F50E00005D0F0000D5FA00001C
S315000000105D0F00005D0F00005D0F00000000000096
S315000000200000000000000000000000005D0F00005E
S315000000305D0F0000000000005D0F00005D0F000076
S315000000405D0F00005D0F00005D0F00005D0F0000FA
S315000000505D0F00005D0F00005D0F00005D0F0000EA
S315000000605D0F00005D0F00005D0F00005D0F0000DA
S315000000705D0F00005D0F00005D0F00005D0F0000CA
S315000000805D0F00005D0F00005D0F00005D0F0000BA
S315000000905D0F00005D0F00005D0F00005D0F0000AA
S315000000A0FDC100005D0F00005D0F00005D0F000048
S315000000B05D0F00005D0F00005D0F00005D0F00008A
S315000000C05D0F0000A99300005D0F00005D0F0000AA
S315000000D05D0F00005D0F00005D0F00005D0F00006A
S315000000E05D0F00005D0F00005D0F00005D0F00005A
S315000000F05D0F00005D0F00005D0F00005D0F00004A
S31500000100E9F2000049F300005D0F00005D0F0000FA
S315000001105D0F00005D0F00005D0F00005D0F000029
S315000001205D0F00005D0F00004DE300005D0F000055
S315000001305D0F00005D0F00005D0F00005D0F000009
S315000001405D0F00005D0F00005D0F00005D0F0000F9
S315000001505D0F00005D0F00005D0F00005D0F0000E9
S315000001605D0F00005D0F00005D0F00005D0F0000D9
S315000001705D0F00005D0F00005D0F00005D0F0000C9
S315000001805D0F00005D0F00005D0F00005D0F0000B9
S315000001905D0F00005D0F00005D0F00005D0F0000A9
S315000001A05D0F00005D0F00005D0F00005D0F000099
S315000001B05D0F00005D0F00005D0F00005D0F000089
S315000001C05D0F00005D0F00005D0F00005D0F000079
S315000001D05D0F00005D0F00005D0F00005D0F000069
S315000001E05D0F00005D0F00005D0F00005D0F000059
S315000001F05D0F00005D0F00005D0F00005D0F000049
S315000002005D0F00005D0F00005D0F00005D0F000038
S315000002105D0F00005D0F00005D0F00005D0F000028
S315000002205D0F00005D0F00005D0F0000F9D60000B5
S31500000230F9D60000F9D60000F9D60000F9D600007C
S31500000240F9D60000F9D60000F9D60000F9D600006C
S31500000250F9D60000F9D60000F9D60000F9D600005C
S31500000260F9D60000F9D60000F9D60000F9D600004C
S31500000270F9D60000F9D60000F9D60000F9D600003C
S31500000280F9D60000F9D60000F9D60000F9D600002C
S31500000290F9D60000F9D60000F9D60000F9D600001C
S315000002A05D0F00005D0F0000F9D60000F9D60000D2
S315000002B0F9D60000F9D60000F9D60000F9D60000FC
S315000002C0F9D60000F9D60000F9D60000F9D60000EC
S315000002D0F9D60000F9D60000F9D60000F9D60000DC
S315000002E0F9D60000F9D60000F9D60000F9D60000CC
S315000002F0F9D60000F9D60000F9D60000F9D60000BC
S31500000300F9D60000F9D60000F9D60000F9D60000AB
S31500000310F9D60000F9D60000F9D60000F9D600009B
S31500000320F9D60000F9D60000F9D60000F9D600008B
S31500000330F9D60000F9D60000F9D60000F9D600007B
S31500000340F9D60000F9D60000F9D60000F9D600006B
S31500000350F9D60000F9D60000F9D60000F9D600005B
S31500000360F9D60000F9D60000F9D60000F9D600004B
S31500000370F9D60000F9D60000F9D60000F9D600003B
S31500000380F9D60000F9D60000F9D60000F9D600002B
S31500000390F9D60000F9D60000F9D60000F9D600001B
S315000003A0F9D60000F9D60000F9D60000F9D600000B
S315000003B0F9D60000F9D60000F9D60000F9D60000FB
S315000003C0F9D60000F9D60000F9D60000F9D60000EB
S315000003D0F9D60000F9D60000F9D60000F9D60000DB
S315000003E0F9D60000F9D60000F9D60000F9D60000CB
S315000003F0F9D60000F9D60000F9D60000FFFFFFFF8E
S31500000400FFFFFFFFFFFFFFFFFFFFFFFFFE7FFFFF77
S3150000041000700020C9000020C9000020C90000208B
S31500000420C9000020C9000020C9000020000000000B
S31500000430000000000000000000000000C9000020CD
S31500000440C900002000000000C9000020C9000020EB
S31500000450C9000020C9000020C9000020C9000020F2
S31500000460C9000020C9000020C9000020C9000020E2
S31500000470C9000020C9000020C9000020C9000020D2
S31500000480C9000020C9000020C9000020C9000020C2
S31500000490C9000020C9000020C9000020C9000020B2
S315000004A0C9000020C9000020C9000020C9000020A2
S315000004B0C9000020C9000020C9000020C900002092
S315000004C0C9000020C9000020C9000020C900002082
S315000004D0C9000020F1030020FEE74FF0E021044BA5
S315000004E0D1F80C2D92B21343C1F80C3D704700BFF2
S315000004F00400FA0530B50B4B0A22834203D80A24BE
S3150000050023B90B7030BDB3FBF2F3F6E7B0FBF3F2A1
S3150000051002F1300503FB120001F8015BB3FBF4F3B3
S31500000520EEE700BFA0860100A0F13003DBB2092B85
S3150000053084BF3738C3B21846704708B502460078FC
S31500000540FFF7F2FF01465078FFF7EEFF00EB0110D0
S31500000550C0B208BD38B50546FFF7EFFF0446A81C34
S31500000560FFF7EBFF00EB042080B238BD38B5054637
S31500000570FFF7E3FF0446A81CFFF7ECFF00EB04407F
S3150000058038BD38B50546FFF7E5FF0446281DFFF7D9
S31500000590E1FF00EB044038BD2DE9F0470024074693
S315000005A089461646254603F1FF3802F1FF3AA64270
S315000005B007EB440002DC2846BDE8F087FFF7BDFFE5
S315000005C0A04505DCA2451EBF494601F8010B894638
S315000005D00544EDB20134EAE7F8B5002407460E46B5
S315000005E02546AE4207EB450001DC2046F8BDFFF785
S315000005F0A4FF0444E4B20135F3E7264AF8B51368CC
S31500000600013313600378532B05460F463ED14678D7
S315000006100230FFF792FF303E032E044605F1040533
S315000006200BD0072E2CD08EBB3E7038732146284641
S31500000630FFF7D2FF2044C0B21DE03E702846FFF708
S31500000640A0FF631F152C78603B7321D8124BE34043
S31500000650DB071DD505232246B9682846FFF79CFF10
S315000006603B7B03F0F7022044042AC0B203D1BA68E8
S315000006704FF0FF31D150FF280CBF00200420F8BDF9
S315000006803E702846FFF77DFF7860CFE70320F6E748
S315000006900220F4E7308EFF1F402020002A4BA0F5F1
S315000006A000229A4270B501D8012070BD274B9842AE
S315000006B0FAD802680B689A4203D142684B689A429C
S315000006C03FD000F17043B3F5803F214D214C224AC3
S315000006D038BF43F4000040F0E0632B600B682360F2
S315000006E04B6813601D4B80261E701E783606FCD59F
S315000006F01E7816F0700FD7D14FF0007640F00070DC
S31500000700286026600E68166080261E70134B1E78C1
S315000007103606FCD51E7816F0700FC5D128604FF04E
S31500000720007020604968116080221A700B4B1A789D
S315000007301206FCD51B7813F0700F14BF01200020A1
S31500000740B3E70020B1E700BFFFFFF70FFFFF001080
S3150000075004000240080002400C0002400000024073
S3150000076038B505464068B0F5002F04DB00F170434C
S31500000770B3F5803F19D22B7B082B05D0102B08D060
S31500000780012B12D0052038BDA968BDE83840FFF717
S3150000079085BFA968FFF782FF0446D5E90101083144
S315000007A00830FFF77BFF2044EDE70020EBE7124A15
S315000007B04FF000631360114B8021197019780906F8
S315000007C0FCD540211970197811F0300F11D14FF076
S315000007D00861116080221A70084B1A781206FCD53F
S315000007E040221A701B7813F0300F14BF012000202E
S315000007F070470120704700BF04000240000002401D
S3150000080070B5274A2749284D28484FF46026536972
S315000008109C020BD4264C274A2149274D2068136891
S31500000820984202D04B691B0223D470BD536913F45E
S31500000830602F02D0D3695661E9E7D4690B68EC549E
S315000008400B6801335C4204F07F0403F07F0358BF5A
S3150000085063420B600C6803689C42D8D1036801337D
S315000008605C4204F07F0403F07F0358BF63420360D9
S31500000870CDE71368EB5CCB6113680133584200F097
S315000008807F0003F07F0358BF43421360206813685C
S31500000890984202BF8B6923F400038B61BEE700BF59
S315000008A000B00640C48EFF1F448EFF1FC88EFF1F78
S315000008B0E88DFF1FEC8DFF1F688DFF1F074A10682C
S315000008C013680133594201F07F0103F07F0358BFDB
S315000008D04B421360024B185C704700BFC88EFF1F67
S315000008E0448EFF1F074A08491368C854136801332A
S315000008F0594201F07F0103F07F0358BF4B4213605A
S31500000900704700BFE88DFF1F688DFF1FF8B5184FB1
S31500000910184E04463D463A6833689A42FBD0FFF7C4
S31500000920CDFFA0F14103DBB2192B04D9A0F13003AE
S31500000930DBB2092B02D804F8010BECE70D2812D123
S31500000940002323702A6833689A42FBD02A680A4B30
S315000009509A5C0D2A03D02A689B5C0A2B06D1BDE857
S31500000960F840FFF7ABBF0A28D5D1E9E7F8BD00BFCD
S31500000970C88EFF1FC48EFF1F448EFF1F0348044905
S3150000098002680B689A42FBD0FFF798BFC88EFF1F1C
S31500000990C48EFF1F38B572B60B4B9A69110209D582
S315000009A062B60A490A4C0D682268954202D19A69D4
S315000009B01202F8D4FFF796FF034A936943F4000343
S315000009C0936162B638BD00BF00B00640E88DFF1FD8
S315000009D0EC8DFF1F10B5441E14F8010F00B910BDB1
S315000009E0FFF7D8FFF8E772B64FF0E023184AC3F8CE
S315000009F0082D184BDA68B2F5E13F00DC12B94FF466
S31500000A00E132DA60DA68144B120193FBF2F3134A0F
S31500000A100021C2F8AC114FF04071C2F8AC11D2F807
S31500000A20AC1141F08041C2F8AC11C3F30C0302F5DE
S31500000A30C04243F070631361882393624FF430130E
S31500000A409361074A536843F00203536062B67047E6
S31500000A5000000020308FFF1F006CDC0200500640B3
S31500000A6000E100E02DE9F0434C4D4D4BAB60A1B0E9
S31500000A70FFF7B9FF4B48FFF7ADFF4B48FFF7AAFF5B
S31500000A804A48FFF7A7FFFFF779FF00F0DF04A4F15C
S31500000A904303012BF7D84648FFF79CFF432C53D15D
S31500000AA04448FFF797FF00264348DFF8F080434F9E
S31500000AB0DFF82C91FFF78EFF00246846FFF726FF2C
S31500000AC041466846FFF799FD0444E4B260B13C48EC
S31500000AD0FFF780FF38686946FFF70CFD6846FFF7A9
S31500000AE079FF3348FFF776FF56B195F90030032BAF
S31500000AF006D14046FFF734FE10B13248FFF76AFFD1
S31500000B003968642291FBF2F302FB131333B92E48C2
S31500000B10FFF760FF4FF40073C9F80C30396840F6F0
S31500000B20B83291FBF2F302FB131313B92048FFF717
S31500000B3051FF95F90030062BBFDD66BB4CBB234841
S31500000B40FFF748FF22480FE02248FFF743FFFFF771
S31500000B5015FF00F0DF005928F9D11F48FFF73AFFCB
S31500000B60FFF725FE80B11D48FFF734FF1C4B4FF4FD
S31500000B7000729A60FFF702FF1A4B00221A60FFF715
S31500000B80ACFC21B0BDE8F0831748FFF723FF012630
S31500000B908AE71648D4E71648D2E700BF348EFF1F0F
S31500000BA0F08DFF1FE40700200C080020320800200B
S31500000BB05C0800205F0800200E090020308EFF1F11
S31500000BC02D0900204709002065090020670900203B
S31500000BD0B409002085080020B2080020D6080020AD
S31500000BE000F10F401082FF1FF2080020810900204B
S31500000BF0980900200D0A2A2A2A2066742D52504987
S31500000C002D736120426F6F744C6F6164657220565C
S31500000C10312E30202A2A2A0D0A0D0A0050726573D9
S31500000C20730D0A3C443E20746F20646F776E6C6FC0
S31500000C306164206E6577206669726D776172650DF5
S31500000C400A003C433E20746F20636865636B20692D
S31500000C506E74656772697479206F66206669726D55
S31500000C60776172652066696C650D0A000D0A00439E
S31500000C706865636B696E6720696E7465677269740F
S31500000C8079206F66206669726D7761726520666984
S31500000C906C650D0A0041524520594F552053555257
S31500000CA04520544F20444F574E4C4F4144204E450B
S31500000CB057204649524D574152453F202859290D44
S31500000CC00A004F6B2C206C6574277320646F776E57
S31500000CD06C6F61642061206E6577206669726D773E
S31500000CE06172650D0A002A2A2A20466C6173682003
S31500000CF06572617365206572726F72202A2A2A0DE9
S31500000D000A00466C61736820737563636573736666
S31500000D10756C6C79206572617365640D0A000D0A45
S31500000D2053746172742066696C65207472616E73A7
S31500000D30666572206E6F772E2E2E0D0A000D0A53F1
S31500000D402D5265636F7264206572726F7220696ED0
S31500000D50206C696E6520002A2A2A20466C61736819
S31500000D602070726F6772616D206572726F72202AD1
S31500000D702A2A0D0A002A000D0A4E6F206572726F2C
S31500000D80727320666F756E6420696E2066696C6585
S31500000D90000D0A4572726F727320666F756E64205D
S31500000DA0696E2066696C65000D0A4E6F2065727269
S31500000DB06F727320647572696E67207570646174F2
S31500000DC0650D0A000D0A416C6C20646F6E652E2E4F
S31500000DD02E507265737320616E79206B657920667B
S31500000DE06F7220726573657400FFFFFFFFFFFFFFE0
S31500000DF00348044B834202D0034B03B118477047A4
S31500000E001082FF1F1082FF1F0000000005480649E0
S31500000E100B1AD90F01EBA301491002D0034B03B102
S31500000E20184770471082FF1F1082FF1F0000000046
S31500000E3010B5064C237843B9FFF7DAFF044B13B11C
S31500000E400448AFF300800123237010BD2082FF1FEA
S31500000E5000000000DC5F010008B5044B1BB104492B
S31500000E600448AFF30080BDE80840CFE7000000006B
S31500000E702482FF1FDC5F0100A3F5803A704700BFA4
S31500000E80174B002B08BF134B9D46FFF7F5FF0021BC
S31500000E908B460F461348144A121A10F0C3FE0E4B27
S31500000EA0002B00D098470D4B002B00D09847002010
S31500000EB0002104000D000D48002802D00C48AFF3B5
S31500000EC0008010F06FFE200029000CF07DF910F074
S31500000ED055FE00BF000008000000000000000000F2
S31500000EE0007000202082FF1F5892FF1F00000000A4
S31500000EF00000000072B64FF000014FF000024FF004
S31500000F0000034FF000044FF000054FF000064FF0CD
S31500000F100007B846B946BA46BB46BC460A490B4A1C
S31500000F20521A013A05DD0020042308601944043AE8
S31500000F30FBDA07488546074880470748804762B678
S31500000F40FFF79EFFFEE700000080FF1F00700020F5
S31500000F5000700020F11F0000452000000CF0CCBB03
S31500000F6081F0004102E000BF83F0004330B54FEA54
S31500000F7041044FEA430594EA050F08BF90EA020FC1
S31500000F801FBF54EA000C55EA020C7FEA645C7FEA54
S31500000F90655C00F0E2804FEA5454D4EB5555B8BF77
S31500000FA06D420CDD2C4480EA020281EA030382EAE8
S31500000FB0000083EA010180EA020281EA0303362D7A
S31500000FC088BF30BD11F0004F4FEA01314FF4801C4D
S31500000FD04CEA113102D0404261EB410113F0004F5F
S31500000FE04FEA03334CEA133302D0524263EB430316
S31500000FF094EA050F00F0A780A4F10104D5F1200EB4
S315000010000DDB02FA0EFC22FA05F2801841F100010E
S3150000101003FA0EF2801843FA05F359410EE0A5F1E2
S3150000102020050EF1200E012A03FA0EFC28BF4CF013
S31500001030020C43FA05F3C01851EBE37101F00045C9
S3150000104007D54FF0000EDCF1000C7EEB00006EEBD6
S315000010500101B1F5801F1BD3B1F5001F0CD3490860
S315000010605FEA30004FEA3C0C04F101044FEA4452B7
S3150000107012F5800F80F09A80BCF1004F08BF5FEA3E
S31500001080500C50F1000041EB045141EA050130BD1E
S315000010905FEA4C0C404141EB0101013C28BFB1F530
S315000010A0801FE9D291F0000F04BF01460020B1FA7B
S315000010B081F308BF2033A3F10B03B3F120020CDA4E
S315000010C00C3208DD02F1140CC2F10C0201FA0CF02C
S315000010D021FA02F10CE002F11402D8BFC2F1200C91
S315000010E001FA02F120FA0CFCDCBF41EA0C01904047
S315000010F0E41AA2BF01EB0451294330BD6FEA040490
S315000011001F3C1CDA0C340EDC04F11404C4F120027A
S3150000111020FA04F001FA02F340EA030021FA04F38C
S3150000112045EA030130BDC4F10C04C4F1200220FAE3
S3150000113002F001FA04F340EA0300294630BD21FA21
S3150000114004F0294630BD94F0000F83F4801306BFE7
S3150000115081F480110134013D4EE77FEA645C18BFDB
S315000011607FEA655C29D094EA050F08BF90EA020F72
S3150000117005D054EA000C04BF1946104630BD91EA6A
S31500001180030F1EBF0021002030BD5FEA545C05D16D
S315000011904000494128BF41F0004130BD14F58004AC
S315000011A03CBF01F5801130BD01F0004545F0FE4120
S315000011B041F470014FF0000030BD7FEA645C1ABF55
S315000011C0194610467FEA655C1CBF0B46024650EA8C
S315000011D0013406BF52EA033591EA030F41F40021B8
S315000011E030BD00BF90F0000F04BF0021704730B53E
S315000011F04FF4806404F132044FF000054FF0000113
S3150000120050E700BF90F0000F04BF0021704730B5D3
S315000012104FF4806404F1320410F0004548BF4042A8
S315000012204FF000013EE700BF42004FEAE2014FEAFD
S3150000123031014FEA02701FBF12F07F4393F07F4FD8
S3150000124081F06051704732F07F4208BF704793F0DB
S315000012507F4F04BF41F40021704730B54FF46074EE
S3150000126001F0004521F000411CE700BF50EA0102F1
S3150000127008BF704730B54FF000050AE050EA01029A
S3150000128008BF704730B511F0004502D5404261EB0A
S3150000129041014FF4806404F132045FEA915C3FF44B
S315000012A0D8AE4FF003025FEADC0C18BF03325FEAE8
S315000012B0DC0C18BF033202EBDC02C2F1200300FA99
S315000012C003FC20FA02F001FA03FE40EA0E0021FABE
S315000012D002F11444BDE600BF70B54FF0FF0C4CF4AC
S315000012E0E06C1CEA11541DBF1CEA135594EA0C0F5E
S315000012F095EA0C0F00F0DEF82C4481EA030621EA99
S315000013004C5123EA4C5350EA013518BF52EA0335D3
S3150000131041F4801143F4801338D0A0FB02CE4FF085
S315000013200005E1FB02E506F00042E0FB03E54FF0B5
S315000013300006E1FB03569CF0000F18BF4EF0010EAD
S31500001340A4F1FF04B6F5007F64F5407404D25FEAA9
S315000013504E0E6D4146EB060642EAC62141EA55515C
S315000013604FEAC52040EA5E504FEACE2EB4F1FD0C9E
S3150000137088BFBCF5E06F1ED8BEF1004F08BF5FEA1C
S31500001380500E50F1000041EB045170BD06F00046CE
S3150000139046EA010140EA020081EA0301B4EB5C047B
S315000013A0C2BFD4EB0C0541EA045170BD41F4801173
S315000013B04FF0000E013C00F3AB8014F1360FDEBF98
S315000013C0002001F0004170BDC4F10004203C35DA74
S315000013D00C341BDC04F11404C4F1200500FA05F3F7
S315000013E020FA04F001FA05F240EA020001F0004298
S315000013F021F0004110EBD37021FA04F642EB06010E
S315000014005EEA430E08BF20EAD37070BDC4F10C0437
S31500001410C4F1200500FA04F320FA05F001FA04F2FB
S3150000142040EA020001F0004110EBD37041F10001E7
S315000014305EEA430E08BF20EAD37070BDC4F12005F2
S3150000144000FA05F24EEA020E20FA04F301FA05F25A
S3150000145043EA020321FA04F001F0004121FA04F202
S3150000146020EA020000EBD3705EEA430E08BF20EAD2
S31500001470D37070BD94F0000F0FD101F0004640000C
S3150000148041EB010111F4801F08BF013CF7D041EA8E
S31500001490060195F0000F18BF704703F00046520092
S315000014A043EB030313F4801F08BF013DF7D043EA63
S315000014B00603704794EA0C0F0CEA135518BF95EA19
S315000014C00C0F0CD050EA410618BF52EA4306D1D1A0
S315000014D081EA030101F000414FF0000070BD50EABF
S315000014E0410606BF1046194652EA430619D094EA49
S315000014F00C0F02D150EA013613D195EA0C0F05D133
S3150000150052EA03361CBF104619460AD181EA030186
S3150000151001F0004141F0FE4141F470014FF000003E
S3150000152070BD41F0FE4141F4780170BD70B54FF0D9
S31500001530FF0C4CF4E06C1CEA11541DBF1CEA135559
S3150000154094EA0C0F95EA0C0F00F0A7F8A4EB05043B
S3150000155081EA030E52EA03354FEA013100F0888032
S315000015604FEA03334FF0805545EA131343EA1263FB
S315000015704FEA022245EA111545EA10654FEA0026B0
S315000015800EF000419D4208BF964244F1FD0404F569
S31500001590407402D25B084FEA3202B61A65EB0305C5
S315000015A05B084FEA32024FF480104FF4002CB6EB82
S315000015B0020E75EB030E22BFB61A754640EA0C0002
S315000015C05B084FEA3202B6EB020E75EB030E22BF42
S315000015D0B61A754640EA5C005B084FEA3202B6EB83
S315000015E0020E75EB030E22BFB61A754640EA9C0042
S315000015F05B084FEA3202B6EB020E75EB030E22BF12
S31500001600B61A754640EADC0055EA060E18D04FEACF
S31500001610051545EA16754FEA06164FEAC30343EA6F
S3150000162052734FEAC2025FEA1C1CC0D111F4801F3C
S315000016300BD141EA00014FF000004FF0004CB6E735
S3150000164011F4801F04BF01430020B4F1FD0C88BFD4
S31500001650BCF5E06F3FF6AFAEB5EB030C04BFB6EBDF
S31500001660020C5FEA500C50F1000041EB045170BDD2
S315000016700EF0004E4EEA113114EB5C04C2BFD4EBFF
S315000016800C0541EA045170BD41F480114FF0000E83
S31500001690013C90E645EA060E8DE60CEA135594EAFF
S315000016A00C0F08BF95EA0C0F3FF43BAF94EA0C0F02
S315000016B00AD150EA01347FF434AF95EA0C0F7FF477
S315000016C025AF104619462CE795EA0C0F06D152EACB
S315000016D003353FF4FDAE1046194622E750EA4106AF
S315000016E018BF52EA43067FF4C5AE50EA41047FF4C0
S315000016F00DAF52EA43057FF4EBAE12E74FF0FF3C25
S3150000170006E000BF4FF0010C02E000BF4FF0010CF5
S315000017104DF804CD4FEA410C7FEA6C5C4FEA430C6E
S3150000172018BF7FEA6C5C1BD001B050EA410C0CBFBD
S3150000173052EA430C91EA030F02BF90EA020F00201F
S31500001740704710F1000F91EA030F58BF994208BF86
S3150000175090422CBFD8176FEAE37040F00100704743
S315000017604FEA410C7FEA6C5C02D150EA013C07D19A
S315000017704FEA430C7FEA6C5CD6D152EA033CD3D0E5
S315000017805DF8040B704700BF8446104662468C46DF
S315000017901946634600E000BF01B5FFF7B7FF002812
S315000017A048BF10F1000F01BD4DF808EDFFF7F4FF3B
S315000017B00CBF012000205DF808FB00BF4DF808EDC6
S315000017C0FFF7EAFF34BF012000205DF808FB00BFE9
S315000017D04DF808EDFFF7E0FF94BF012000205DF80B
S315000017E008FB00BF4DF808EDFFF7CEFF94BF0120C0
S315000017F000205DF808FB00BF4DF808EDFFF7C4FFB9
S3150000180034BF012000205DF808FB00BF4FEA41020B
S3150000181012F5001215D211D56FF47873B3EB62523C
S3150000182012D94FEAC12343F0004343EA505311F063
S31500001830004F23FA02F018BF404270474FF00000F5
S31500001840704750EA013005D111F0004008BF6FF033
S31500001850004070474FF00000704700BF4FEA41025A
S31500001860B2F1E04324BFB3F5001CDCF1FE5C0DD9F8
S3150000187001F0004C4FEAC0024CEA5070B2F1004F42
S3150000188040EB830008BF20F00100704711F0804F45
S3150000189021D113F13872BCBF01F00040704741F40A
S315000018A080114FEA5252C2F11802C2F1200C10FA0E
S315000018B00CF320FA02F018BF40F001004FEAC123F2
S315000018C04FEAD32303FA0CFC40EA0C0023FA02F396
S315000018D04FEA4303CCE77FEA625307D150EA01336C
S315000018E01EBF4FF0FE4040F44000704701F000403C
S315000018F040F0FE4040F40000704700BF80F000401A
S3150000190002E000BF81F0004142001FBF5FEA4103D1
S3150000191092EA030F7FEA226C7FEA236C6AD04FEAD1
S315000019201262D2EB1363C1BFD21841404840414016
S31500001930B8BF5B42192B88BF704710F0004F40F4C8
S31500001940000020F07F4018BF404211F0004F41F4E4
S31500001950000121F07F4118BF494292EA030F3FD0B0
S31500001960A2F1010241FA03FC10EB0C00C3F12003C3
S3150000197001FA03F100F0004302D5494260EB400052
S31500001980B0F5000F13D3B0F1807F06D340084FEABD
S31500001990310102F10102FE2A51D2B1F1004F40EBB2
S315000019A0C25008BF20F0010040EA0300704749001A
S315000019B040EB0000013A28BFB0F5000FEDD2B0FAB7
S315000019C080FCACF1080CB2EB0C0200FA0CF0AABFDA
S315000019D000EBC25052421843BCBFD0401843704778
S315000019E092F0000F81F4000106BF80F4000001327E
S315000019F0013BB5E74FEA41037FEA226C18BF7FEA55
S31500001A00236C21D092EA030F04D092F0000F08BF96
S31500001A100846704790EA010F1CBF0020704712F07D
S31500001A207F4F04D1400028BF40F00040704712F1BC
S31500001A3000723CBF00F50000704700F0004343F021
S31500001A40FE4040F4000070477FEA226216BF084657
S31500001A507FEA23630146420206BF5FEA412390EA1A
S31500001A60010F40F4800070474FF0000304E000BF10
S31500001A7010F0004348BF40425FEA000C08BF7047C1
S31500001A8043F0964301464FF000001CE050EA010285
S31500001A9008BF70474FF000030AE000BF50EA01029A
S31500001AA008BF704711F0004302D5404261EB410187
S31500001AB05FEA010C02BF84460146002043F0B643AC
S31500001AC008BFA3F18053A3F50003BCFA8CF2083AD1
S31500001AD0A3EBC25310DB01FA02FC634400FA02FCDA
S31500001AE0C2F12002BCF1004F20FA02F243EB0200E1
S31500001AF008BF20F00100704702F1200201FA02FC43
S31500001B00C2F1200250EA4C0021FA02F243EB020035
S31500001B1008BF20EADC7070477BB972B90029BEBFE6
S31500001B2000204FF0004106E008BF00281CBF6FF000
S31500001B3000414FF0FF3000F023BAADF1080C6DE91B
S31500001B4004CE002909DB002B1ADB00F0B7F8DDF81C
S31500001B5004E0DDE9022304B07047404261EB410135
S31500001B60002B1BDB00F0AAF8DDF804E0DDE9022318
S31500001B7004B0404261EB4101524263EB43037047BC
S31500001B80524263EB430300F099F8DDF804E0DDE927
S31500001B90022304B0404261EB41017047524263EBBD
S31500001BA0430300F08BF8DDF804E0DDE9022304B01E
S31500001BB0524263EB4303704753B94AB9002908BF41
S31500001BC000281CBF4FF0FF314FF0FF3000F0D8B9AE
S31500001BD0ADF1080C6DE904CE00F070F8DDF804E014
S31500001BE0DDE9022304B0704707EE900AF5EEC07AED
S31500001BF0F1EE10FA01D400F023B8F1EE677A08B5D9
S31500001C0017EE900A00F01CF8404261EB410108BD56
S31500001C1038B50022002304460D46FFF7CFFD28B94C
S31500001C2020462946BDE8384000F02AB8204605F18E
S31500001C30004100F025F8404261EB410138BD00BF8C
S31500001C40D0B5FFF7F1FA0C4B002206460F46FFF718
S31500001C5043FB00F097F90446FFF7C4FA074B00224E
S31500001C60FFF73AFB02460B4630463946FFF77CF94A
S31500001C7000F088F92146D0BD0000F03D0000F0419B
S31500001C80D0B50C4B002206460F46FFF725FB00F0A9
S31500001C9079F90446FFF7A6FA074B0022FFF71CFB6B
S31500001CA002460B4630463946FFF75EF900F06AF900
S31500001CB02146D0BD0000F03D0000F0412DE9F0477F
S31500001CC0089D0E4604468C46002B40F081808A42D1
S31500001CD0174645D9B2FA82F24AB1C2F1200106FA94
S31500001CE002F320FA01F1974041EA030C94404FEACF
S31500001CF0174E230CBCFBFEF6B9B20EFB16CC43EA1C
S31500001D000C4306FB01F0984209D9FB1806F1FF3C8B
S31500001D1080F01581984240F21281023E3B441B1A24
S31500001D20A4B2B3FBFEF00EFB103344EA034400FBFF
S31500001D3001F1A14209D93C1900F1FF3380F001817C
S31500001D40A14240F2FE8002383C44641A40EA064052
S31500001D5000211DB1D4400023C5E90043BDE8F0874A
S31500001D6002B9FFDEB2FA82F2002A4FD1CB1B4FEA4C
S31500001D70174E1FFA87F80121B3FBFEFC260C0EFB5B
S31500001D801C3346EA034608FB0CF3B34207D9BE19D7
S31500001D900CF1FF3002D2B34200F2EB808446F61A11
S31500001DA0A3B2B6FBFEF00EFB106643EA064408FB40
S31500001DB000F8A04507D93C1900F1FF3302D2A0452F
S31500001DC000F2D2801846A4EB080440EA0C40C0E7B3
S31500001DD08B4208D9002D00F0AF800021C5E900062E
S31500001DE00846BDE8F087B3FA83F1002949D1B3422A
S31500001DF002D3824200F2BB80841A66EB0303012001
S31500001E009C46002DAAD0C5E9004CA7E7C2F12003E5
S31500001E109740D8409140DE404FEA174E08434FEABC
S31500001E20104CB6FBFEF11FFA87F80EFB11664CEA62
S31500001E30064601FB08F3B34204FA02F409D9BE19B7
S31500001E4001F1FF3C80F08E80B34240F28B80023974
S31500001E503E44F31A86B2B3FBFEF00EFB103346EA9D
S31500001E60034600FB08F3B34207D9BE1900F1FF3C55
S31500001E7074D2B34272D902383E44F31A40EA0141A1
S31500001E807AE7C1F1200703FA01F422FA07F31C43AB
S31500001E9020FA07F906FA01F34FEA144CFE4049EA24
S31500001EA003094FEA1943B6FBFCFE1FFA84F80CFB44
S31500001EB01E6643EA06460EFB08FAB24502FA01F22E
S31500001EC000FA01F308D9A6190EF1FF3048D2B2453F
S31500001ED046D9AEF1020E2644A6EB0A061FFA89F988
S31500001EE0B6FBFCF00CFB106649EA064600FB08F858
S31500001EF0B04507D9A61900F1FF3C2DD2B0452BD924
S31500001F000238264440EA0E40A6EB0806A0FB0289EA
S31500001F104E45C446CE4618D315D075B3B3EB0C0266
S31500001F2066EB0E0606FA07F722FA01F3CE401F43C8
S31500001F30C5E90076002111E7294628460EE76646E0
S31500001F40EDE6184601E74345E7D2B8EB020C69EB2C
S31500001F5004040138A646E0E76046D3E760468CE70E
S31500001F608646B9E7614674E702383C442BE70846E3
S31500001F7047E7ACF1020C3E4411E72946EEE600BF06
S31500001F80704700BF4A0011D212F5001211D20DD5CA
S31500001F906FF47873B3EB62520ED44FEAC12343F069
S31500001FA0004343EA505323FA02F070474FF0000013
S31500001FB0704750EA013002D14FF0FF3070474FF0C2
S31500001FC000007047EC46A0E8F05F4FF00000704755
S31500001FD0B0E8F05FE546080008BF0120704700BF83
S31500001FE0034613F8012B002AFBD1181A0138704753
S31500001FF04FF0E023D3F8882D42F47002C3F8882D01
S31500002000D3F8342F22F08042C3F8342F054B064A0A
S315000020105A605A6842F220121A604FF6FF729A60AE
S31500002020704700BF0020054020C528D94FF0E021A9
S31500002030034BD1F80C2D92B21343C1F80C3D7047F7
S315000020400400FA05134B1449144A8B420FD1144B62
S315000020501449154A99420FD1144B154A002193424F
S315000020600FD1144B1449154A99420DD1704713F8F4
S31500002070010B02F8010BE8E713F8010B02F8010B5C
S31500002080E8E703F8011BEAE713F8010B02F8010B76
S31500002090EAE700BF18600100286201000080FF1F08
S315000020A028620100286201002082FF1F2082FF1F94
S315000020B05892FF1F28620100286201000080FF1F5E
S315000020C0704700002DE9F04FADF54D7D3E4B019375
S315000020D00DF1140869AF3B463C48CDF8008009AACB
S315000020E0632104F09DFBD8F80030002B67DD3868CB
S315000020F00378232B63D10130386005F031FED8F820
S315000021000030012B04465DDD7B681B782C2B14BF49
S3150000211001250225DFF8BC9001230DF1100A12E01B
S3150000212057F8256033782C2B05D1214609200CF071
S31500002130D1F8002306E03B2BFBD04FF0000B3378A1
S3150000214073B901230135D8F80020AA42E8DC1BB197
S315000021501F48214604F050FC0DF54D7DBDE8F08F7B
S315000021600123CAF800B003A9CDE900A3304602ABAB
S3150000217006AA05F04BFDDAF80030D90706460FD55A
S315000021809DED030A202340F2E7320021484603F082
S3150000219093FD484604F04CFC214604F02DFCCEE7A6
S315000021A05A0707D50A2300934846DDE9062303F0BC
S315000021B0EDFCEEE79B07C2D502982146EDE7002429
S315000021C02546A7E70125A5E7F73C01001089FF1F73
S315000021D0FA3C01004889FF1F2DE9F0414E4B4F4D57
S315000021E01A6829684E4E4F4888B07E320C270C4636
S315000021F011F8013B002B00F08B8013F0800F53D0B9
S315000022009A4251DB803B07FB03639B688342EED116
S315000022102868002104F05CF9034601301A78202A68
S31500002220FAD09C4202D0404803F096FF28683F4E01
S31500002230002105F0D9FD3E4A31680546106801EBDC
S315000022408011904691F8327091F8201011F0200F0D
S3150000225002D0384803F080FFD8F80020336803EB3B
S315000022608213601C93F8203013F0020103AA1DD0DC
S31500002270022303930023CDE9002304A905AB06AA94
S3150000228005F0C4FC059B1B78BB42044602D92A48CC
S3150000229003F062FF0599284604F0E4FB204604F0AB
S315000022A09BFB08B0BDE8F081B368AFE713F001030C
S315000022B015D00123CDE90021039306AA05AB04A995
S315000022C005F0A4FC039BDA07044602D5049B2B60A9
S315000022D0E4E7DDE90601FFF7E1FB2860DEE704211C
S315000022E0CDE90023039105AB06AA04A905F08EFCEF
S315000022F0039B5B07044604D5DDE90623C5E90023F5
S31500002300CCE79DED040A04F099F8C5E90001C5E79C
S315000023100A4803F021FF7BE7F888FF1F1089FF1F9B
S315000023204C4B01006D920000FE3C0100648DFF1FC6
S31500002330FC88FF1F053D01001E3D01002E3D0100EA
S3150000234038B504460B480D4603F0FCFE23680133FE
S3150000235023606DB9084AD278934209DB074803F037
S31500002360F1FE07F067F8064803F0ECFE0123236050
S3150000237038BD00BFFB3C0100308FFF1F3E3D010012
S31500002380503D0100104B1B6810B51BB10F4B42F2BC
S315000023900B721A6003F042FE0D4B002401201C70E4
S315000023A004F092F90B4B1C700B4B0C4C5869B0F5B2
S315000023B0704F02D0204404F0CFFE2378012B04BFD7
S315000023C0074B1C6010BD00BF6088FF1F1482FF1FF3
S315000023D0BC8FFF1FB08FFF1F308FFF1F000800103C
S315000023E0AC8AFF1F38B51D4C1D4B20681B78027840
S315000023F01C4D9A420DD11C4C226812B91B4803F0A1
S31500002400ABFE22681A4B03EB421353F81C3C2B60BD
S3150000241038BD184903F062FE60B1174C226812B944
S31500002420164803F099FE2268154B03EB021353F886
S315000024300C3CECE7206804F0CFFA124B1B6813B192
S31500002440114803F089FE114C226812B9104803F0B6
S3150000245083FE104B00221A702368D8E71089FF1FED
S31500002460578DFF1FAC8AFF1FFC85FF1F643D0100CF
S315000024700086FF1FF63E01009084FF1F7D3D010090
S315000024809484FF1F6088FF1F953D01003888FF1F59
S31500002490AA3D0100B08FFF1F08B50A4B0A4C186809
S315000024A004F09AFA6169094808F01AFE03F0F0FD93
S315000024B0074A00231370237008F06EFE05480121B9
S315000024C0FFF786FD1089FF1F308FFF1F00080010E1
S315000024D0BC8FFF1F508AFF1F08B5044B186804F015
S315000024E07BFABDE80840002003F004BD1089FF1FF9
S315000024F010B50C4B0C4A18680C4C03789A5C12F019
S31500002500030F01D15F2B06D106F034FC084B206087
S3150000251000221A7010BD05F023FC012103F01CFFF8
S31500002520F4E700BF1089FF1F655D0100AC8AFF1F3D
S31500002530B08FFF1F2DE9F843204B214E1A78214B0F
S3150000254034681B689A4203D11F4B186804F044FA9A
S31500002550DFF884901D4FDFF88480012520464A4627
S31500002560002104F02BF83B7804460078834212D110
S3150000257098F800C0611C0B4611F8012B12B1624598
S315000025800B46F8D1013B13F8012F202AFBD00AB1E4
S31500002590272A00D101350E4B1B78834203D00D4B01
S315000025A01B788342DAD1013DD8D1234601341A780B
S315000025B0002AFAD13360BDE8F88300BF0489FF1F03
S315000025C0AC8AFF1F1489FF1F1089FF1F0B89FF1F8D
S315000025D00789FF1F0889FF1FBA3D01005B8DFF1F9A
S315000025E008B5044B186804F0F7F903480121FFF712
S315000025F0EFFC00BF1089FF1F508AFF1F2DE9F04F27
S315000026002DED028B0023CFB0CDE90233B04B02A9EA
S31500002610186805F065FB029BDE074CBF90ED008A4B
S315000026209FEDAC8A5D0748BFD0E9009A03F0070228
S315000026305CBF4FF000094FF0000A9C07014602926A
S3150000264002D50EA804F00EFAA34DA44B2E681C6802
S315000026500127A34A204603A903F0B0FFA14A037845
S3150000266012789A42A04A127808BF01379A42044665
S315000026707BD1012F79D1039B2B600DF1100801341A
S31500002680A34614F8013B202BFAD0029B9749C8F8C1
S315000026900030584603F022FD0646002840F04481EB
S315000026A09BF900309BF80040002B80F28980904B0C
S315000026B01B687E33A342C0F283808E4AA4F1800356
S315000026C00C2101FB03231B79980679D58A4806F06D
S315000026D033FA844274D089489BF8004006F02CFAFD
S315000026E084426DD09BF80030202B5C460BF1010B29
S315000026F0F8D019064DD57E4A12687E329A4248DBDA
S315000027007C49803B0C2202FB03121279920640D5CB
S315000027105C460993029BD80748BF8DED058A590789
S3150000272048BFCDE90A9A9A0744BF0EAB07930DF14D
S31500002730240BDBF80030FF2B2FD1D8F800305B07D5
S3150000274002D46F4803F008FDDDE90A2313432ED1B6
S315000027502046044601302378202BFAD023782C2BF0
S315000027608DD0204604F038F92E60664A2378127818
S315000027709A4240F0CB80012F40F0C88001342046B9
S3150000278004F02AF92046034601301A78002AFAD1C5
S3150000279012E05B4803F0E0FCBCE72046CDE900B858
S315000027A007AB0AAA05A905F02FF90446C1E7234697
S315000027B001341A78002AFAD1484A2E6013605BE089
S315000027C00123CDE900830AAA07AB05A9584605F0FF
S315000027D01DFA0378202B0446834600F10100F8D049
S315000027E0494A029912789A424BD10023C8F8001040
S315000027F00CAACDE9008306A908AB05F007FA0299F1
S315000028000446C8070DD5DDED057AF4EEC87AF1EE7B
S3150000281010FA06D8DDED067AF4EEC87AF1EE10FA73
S3150000282022DA4A070BD5DDE90A2391457AEB030341
S3150000283005DBDDE90C234A4573EB0A0314DA8B0743
S3150000284006D42046044601302378202BFAD085E7AB
S3150000285007990EA805F05BFE0028F2DB08990EA882
S3150000286005F055FE0028ECDC224601341378002BD7
S31500002870FAD11A492B600A604FB0BDEC028BBDE855
S31500002880F08FC80706D5DDED057AF4EE487AF1EE4D
S3150000289010FA0FD04A0705D5DDE90A23534508BFCC
S315000028A04A4507D08B077FF559AF07990EA805F063
S315000028B02EFE30B95A460BF1010B1378002BF9D1D5
S315000028C0D7E75C460BF1010B2378202BF9D045E7BF
S315000028D01089FF1F000000006088FF1FAC8AFF1FE1
S315000028E0CC3D01000C89FF1F0089FF1FE33D01005D
S315000028F0F888FF1F4C4B0100E63D0100E83D010052
S31500002900FE3C01000189FF1F5C8DFF1F084A1278FB
S315000029109A427FF49EAE013F7FF49BAE234601347C
S315000029201A78002AFAD147E70BF1020BDAE600BF64
S315000029300989FF1F2DE9F0410E4DDFF84480286814
S315000029400D4E0E4F01244246002103F037FE327829
S3150000295003789A423A7808BF01349A42F3D1013C8F
S31500002960F1D1034601301A78002AFAD12B60BDE86E
S31500002970F08100BFAC8AFF1F0C89FF1F0989FF1F6A
S31500002980CC3D01002DE9F04FADF22C4D6C4B01937F
S3150000299006AFA7AE33466B48009747AA632103F0FC
S315000029A03FFF3B68022B26DD34682378232B06D1B4
S315000029B0601C306005F0D4F90446022520E0222B85
S315000029C019D173681B782C2B01D03B2B13D12046D1
S315000029D0FFF706FB2044002400F8014C3068013064
S315000029E0306003F0AFFB73681B783B2BE5D156488C
S315000029F003F0A8FBE1E7544803F0A4FB00242546B6
S31500002A003B685B1B002B02DC504803F0A5FB20460D
S31500002A104F494F4CDFF844A1DFF844B10BF0B8FB47
S31500002A203B68AB4203DC0DF22C4DBDE8F08F56F847
S31500002A3025300DF11C09CDF814901B782C2B4FD0A6
S31500002A403B2B4DD02346197820291C461A4603F104
S31500002A500103F8D071B122294CD11946059811F815
S31500002A60012B0AB1222A3DD11C4613F8012B0AB1CB
S31500002A702C2AF9D1059B0021197056F8250005F07E
S31500002A80B3F9DAF80020DBF8003003EB8213804656
S31500002A9093F82030980602D52E4803F05DFBDAF84D
S31500002AA00020DBF8003003EB8213039393F8202019
S31500002AB0910730D54846FFF793FA039B93F83230D7
S31500002AC0984202D9244803F047FB494640460FF096
S31500002AD025F9404603F0ACFF23782C2B08BF0134C0
S31500002AE001359DE7431C059302700B46B5E7481C6C
S31500002AF005900B70144612F8013B05990BB12C2B6F
S31500002B00F5D1059B4B45B5D913F8012C202AB1D137
S31500002B10013B0593F5E7530707D50A2205A9484661
S31500002B200FF0C6FFC8E90001D6E748460FF018F8CF
S31500002B3051EC100BFEF792FEC8F80000CCE700BF80
S31500002B40EA3D01001089FF1FED3D0100FE3C01003A
S31500002B504889FF1F053D01001E3D0100FC88FF1F3F
S31500002B60648DFF1F08B5044B186803F035FF034B4F
S31500002B7001221A6008BD00BF1089FF1F8C84FF1F49
S31500002B8008B5044B186803F027FF034B00221A60B0
S31500002B9008BD00BF1089FF1F8C84FF1F2DE9F3417C
S31500002BA02C4E2D49306803F099FA3446054628B173
S31500002BB02A4B01221A6002B0BDE8F081284930682C
S31500002BC003F08CFA10B1254B1D60F4E725493068F7
S31500002BD003F084FA002837D0336804333360206862
S31500002BE00378202B2BD06BB3272B2BD07F220021F1
S31500002BF005F0D0F81C4D1D4E2C681D4F241A48BFF9
S31500002C00803406F101082B68A342D4D05B2357F821
S31500002C102400337002F098FF0A2302460093C3177C
S31500002C20404602F0B3FF134910480FF05BF8013439
S31500002C300E4803F087FA802CA8BF0024E3E7013092
S31500002C402060CCE77F20D5E70B4802B0BDE8F04115
S31500002C5003F082BA1089FF1F835001008C84FF1F86
S31500002C609F460100F03D01008884FF1F4889FF1F31
S31500002C708882FF1FF53D01002E3D01002DE9F04F32
S31500002C80AF4BF1B01A78039322B9AE4805F086FC33
S31500002C90039B1870AC4B04931A7822B9AB4805F025
S31500002CA07DFC049B1870AA4BAA481B788DF8183037
S31500002CB0A94B1B788DF81930A84B1B788DF81A3064
S31500002CC006AC002308ADE37010AA09AB0194009589
S31500002CD0072103F0A5FD2B68042B0BDD062B09D07D
S31500002CE00A9B1A7823789A4204D10C9B1A78637847
S31500002CF09A4202D09A4803F02FFA2B68062B06D088
S31500002D00072B07D10E9B1A78A3789A4202D09548D2
S31500002D1003F022FADDF8248098F80030202B01D148
S31500002D2008F10108002401E008F803404046FFF7D7
S31500002D3057F998F80030824623B1431E18F803204D
S31500002D40202AF1D000210998874E884C05F04CF8CE
S31500002D5021680746306801EB801191F8201089063A
S31500002D6002D5834803F0F8F93268236803EB82132F
S31500002D7093F8203002939A0703F0070902D57D489D
S31500002D8003F0EAF97C4C7D4B20681E687C4A0021E2
S31500002D90884212DD9368BB4240F0AD80537BB3425C
S31500002DA040F0A980764B013803EB4113884203F1CA
S31500002DB0200300F38780704B18606F4B1B680A2B4B
S31500002DC002D1704803F0C8F923686D4E6B490B9821
S31500002DD0096806EB431201332360029B9760DB0709
S31500002DE082F80C90517340F1908004F09DFF2368A7
S31500002DF00D9887ED000A03F1FF3904F095FF06EB05
S31500002E00491383ED040A2B68072B236876D10F98A4
S31500002E105D1E04F089FF06EB451383ED060A236861
S31500002E20594A0292013B156823605B01691CF15007
S31500002E304FF00109554A284607A903F0BFFB039A3C
S31500002E40037812789A42049A127808BF09F10109A8
S31500002E509A420546EED1431C9B4601339BF800205F
S31500002E6005938AB152464146584605F06DFB059BCF
S31500002E700028F1D11BF80A30454A9A5C520703D163
S31500002E805F2B01D02E2B02D1B9F10109D2D12068D6
S31500002E9006EB401143010A7B4D60540740F18580E3
S31500002EA0D1E90623002A73F10003D7E90067D1E9C7
S31500002EB0042376DBB242BB41C0F298802E4B013030
S31500002EC018609AE0D3E904BC1A6843F8202C5A68C3
S31500002ED043F81C2C43E904BC9A6843F8182CD3E940
S31500002EE006BC1A7B03F8142C5A7B03F8132C43E90F
S31500002EF002BC01315AE70131203249E706EB4313A0
S31500002F004FF07E5243F8082C89E704F029FF236826
S31500002F10C7E900010D9803F1FF3904F021FF2B6882
S31500002F2006EB4919072BC9E90401236832D10F982A
S31500002F305D1E04F015FF06EB4513C3E906016EE7B7
S31500002F406087FF1F364601003088FF1FF73D0100EE
S31500002F50568DFF1F1089FF1F5C8DFF1F5A8DFF1FA7
S31500002F60FC3D0100FE3C0100FC88FF1F648DFF1F35
S31500002F70053D0100173E0100FC85FF1FE488FF1F89
S31500002F800086FF1F283E0100AC8AFF1F423E01005B
S31500002F90655D010006EB43130120002143E90201B0
S31500002FA03DE7964277EB030386E7D1ED067AF5EE29
S31500002FB0C07AF1EE10FA08DBD7ED006A91ED047ADB
S31500002FC0F4EEC76AF1EE10FA10DCF5EEC07AF1EE17
S31500002FD010FA7FF573AF1E4497ED007AD6ED047AAA
S31500002FE0B4EEE77AF1EE10FA7FF568AF2B460135BD
S31500002FF01A78002AFAD1029A136071B0BDE8F08FF0
S315000030002DE9F04FADF5057D754B019310AF05AE7B
S31500003010744800963B4624AA142103F001FC0024C0
S31500003020DFF8D09125460DF118083368AB421FDC56
S31500003030DFF8C4B1DFF8B08104F1FF390026DA46C3
S31500003040DBF8001054BB674B674A1F6825468D4264
S3150000305028DA536801331846013390F800C0BCF1F2
S31500003060200FF8D0874202F120021ED00135EEE78C
S31500003070EA0757F8250007D503782C2B02D04846D7
S3150000308003F06AF80135D0E74FF4007104F0ACFEA6
S3150000309004F1010A48F824005446F3E74D1E06AA37
S315000030A0002D46DA514803F057F808EB451C4FEA65
S315000030B0451E9CF80C20DCF80810530748D5D1E9CA
S315000030C00027DCE90630D21847EB0003029203938F
S315000030D0DDE90223C1E90023DCE90601002871F1DC
S315000030E00003DCE90401DDE902232EDB904271EBEB
S315000030F0030351DADAF800200EEB0803013AAA427C
S3150000310003F120034DDCCAF8002074B106AB03EBD3
S315000031108602314649455DDB631EA642B8BF1E46A0
S3150000312009F1FF391C46002B8AD10DF5057DBDE856
S31500003130F08F08EB45134E46996852F826309942AF
S31500003140B3D0013EF9D2013DAAE782428B41D0E7D6
S315000031509CED067AD1ED007A77EE877AC1ED007A9A
S315000031609CED067AB5EEC07AF1EE10FA06DBDCEDE0
S31500003170046AF4EEE67AF1EE10FABBDCB5EEC07A3C
S31500003180F1EE10FA08D508EB0E0292ED047AF4EE91
S31500003190C77AF1EE10FAADD4154B58F80E201A6026
S315000031A0C3E7196843F8201C596843F81C1C996842
S315000031B043F8181C197B03F8141C597B03F8131CDD
S315000031C0D3E9040143E90401D3E90601013543E9E2
S315000031D0020194E7536842F8043B01319AE700BFC5
S315000031E0F64101001089FF1F0086FF1F533E0100B4
S315000031F0AC8AFF1FFE3C0100FC85FF1F2DE9F74F3F
S315000032005848594C05F0CAF9584BD3F800A05FFA54
S3150000321080F8C24599467BD1554805F0BFF9D4F8E8
S3150000322000B0C7B2534C544E54482268D6F800C07A
S31500003230002105468A420DDD8368634500F11000D2
S3150000324040F08C8005EB0113501E884203F11003F9
S3150000325076DC206023680A2B02D1494802F07CFF05
S31500003260236830681A0105EB031345F802B0454A96
S31500003270986012681A73444A4FF0010B01A903F0D3
S315000032809DF9D9F8003001783F4A994208BF0BF101
S31500003290010BB942F2D1BBF1010BEFD123681A0140
S315000032A005EB0313C245586018D0AB58B3B10130D3
S315000032B003785AB2002A074600F10100F8DC334AC7
S315000032C012789A4202D1324802F046FF314B3A78E0
S315000032D01B789A4202D1304802F03EFF23685A1CFE
S315000032E01B012260E85880B104F01EFDB5EE400ACD
S315000032F0F1EE10FA09D12368013B05EB03152360B3
S315000033006B68336033681A7852BB03B0BDE8F08F40
S31500003310224805F043F91D4B1978C7B22268137885
S3150000332053B18B4202F1010004D102F1010BC4F842
S3150000333000B077E72060F1E70029F6D09B4671E7F9
S315000033401A6843F8102C5A6843F80C2C9A6843F80C
S31500003350082C1A7B03F8042C013176E7013169E762
S315000033600133CEE76E3E01001089FF1F1489FF1F4F
S31500003370743E01009084FF1FAC8AFF1F9484FF1FD8
S315000033807E3E0100E488FF1FA03E01005E8DFF1F08
S31500003390B13E01005D8DFF1FC73E0100793E010071
S315000033A02DE9F843334E344C344AD6F800C0206831
S315000033B000251746AC4504DCBDE8F843304802F06A
S315000033C0CBBE536801339E4613F8011B2029FAD061
S315000033D0704502F110024BD14FEA051857F8083034
S315000033E0002B35D10B062BD5264B1B788B4210D1E3
S315000033F00130206004F098FCB5EE400AF1EE10FAB8
S3150000340014BF4FF001094FF00009B9F1000F15D0B4
S3150000341018E01D4B1B788B420DD10130206004F063
S3150000342083FCB5EE400AF1EE10FA0CBF4FF001092D
S315000034304FF00009E9E7154802F08EFE356005E019
S3150000344003F0CAFA4744124BBA681A60BDE8F8831B
S31500003450184604F069FCB5EE400AF1EE10FA206851
S3150000346014BF4FF001094FF0000903F0B5FACCE79D
S3150000347001359FE79084FF1F1089FF1F9484FF1F6B
S31500003480DE3E01005E8DFF1F5D8DFF1FFE3C0100CD
S31500003490AC8AFF1F10B50D4C236813B90C4802F017
S315000034A05BFE23680B4A013B236002EB43130A4C85
S315000034B05B682360094B186803F08EFA23681A7854
S315000034C002B910BD01332360F8E700BFFC85FF1F7A
S315000034D0643D01000086FF1FAC8AFF1F1089FF1F95
S315000034E010B50D4C236813B90C4802F035FE23685D
S315000034F00B4A013B236002EB03130A4C5B68236013
S31500003500094B186803F068FA23681A7802B910BDE7
S3150000351001332360F8E700BF9084FF1F7D3D010063
S315000035209484FF1FAC8AFF1F1089FF1F08B5084B44
S315000035301868037853B1272B08D004F0C7FF054B52
S3150000354000221A60BDE8084002F006BE0248F9E70C
S315000035501089FF1F6088FF1FAD51010008B5054B9C
S315000035606FF000421868002104F014FCBDE8084022
S315000035700EF060BB1089FF1F214B1B682DE9F04739
S3150000358013B1204802F0E8FD1F4B204A1978126853
S31500003590914299462DD11E4805F000F8C5B21D4846
S315000035A0184FDFF878A004F0F9FF1B4B1C68C6B271
S315000035B098463A462046002103F000F899F8002084
S315000035C003789A42044605D09AF800209A4201D020
S315000035D0B34202D1384602F0BFFD2378AB42E8D1B0
S315000035E0234601341A78002AFAD1C8F80030BDE81B
S315000035F0F087084804F0D2FFC5B20548D0E700BFFF
S315000036006487FF1FF93E01000D89FF1F1489FF1F04
S31500003610153F01001D3F0100AC8AFF1F0A89FF1FED
S3150000362038B5184C2368312B02DD174802F094FD9B
S31500003630164A23681168164A42F823105A1C22605B
S31500003640144C154A216842F82310144A13680133B2
S315000036501360134B134A186803789A5C12F0030F31
S31500003660254601D15F2B06D105F084FB28600E4B61
S3150000367000221A7038BD04F073FB012102F06CFEC3
S315000036802060F4E76487FF1F2A3F01006088FF1F60
S315000036903485FF1FAC8AFF1F6887FF1FE488FF1F62
S315000036A01089FF1F655D0100B08FFF1F38B5124BF3
S315000036B0124C1868124D03F08FF923681BB1013BB9
S315000036C055F8233013B90F4802F046FD0E4B186823
S315000036D0421E1A6002F00EFC0C4B01221A6023688F
S315000036E00B4A013B236055F823101160094A52F832
S315000036F02320094B1A6038BD1089FF1F6487FF1FFE
S315000037006887FF1F403F0100E488FF1F0891FF1FE5
S31500003710AC8AFF1F3485FF1F6088FF1F08B5094B61
S31500003720186803F059F9084B1B6823B1074A013B97
S3150000373052F8233013B1064802F00EFD054B064A37
S315000037401A6008BD1089FF1F6487FF1F6887FF1F67
S31500003750403F0100AC8AFF1F8E3C01002DE9F04F6F
S31500003760ADF69C0D964C9748019408AE0DF5B067E2
S315000037703B460096A0AA632103F052F833680394EF
S3150000378013B9914802F0E8FC0024DFF85C82DFF808
S315000037905C9225463368AB423EDC8C488C4F04F085
S315000037A0FDFE3D680795C3B202932B780497FF2B65
S315000037B002D1884802F0D0FCDFF834820026079B4D
S315000037C01A780AB901330793079B1B78013BDBB2D2
S315000037D0FD2B02D97F4802F0BFFC079B1A78012A0D
S315000037E002BF5A1C07921D46079B1A78022A01D16E
S315000037F003330793079B1A78202A40D0032A40D028
S31500003800079B02991A788A4245D0079B1A78002AA4
S31500003810D5D001330793F8E715F0010157F82500D5
S3150000382007D003782C2B02D0674802F095FC0135AF
S31500003830B0E704F0D9FA0AABD8F8002043F8240020
S31500003840D9F8003003EB821393F820309B0602D59B
S31500003850614802F081FCD8F80020D9F8003003EB6B
S3150000386082133CA993F8202002F0070241F8242095
S3150000387093F832206EAB43F824200134D7E70133A6
S31500003880B7E75A78023213440793079B1A78202A1F
S31500003890B6D10133F8E7049A156001330793079B05
S315000038A01A78202AF9D00AB1272A04D14B4B494865
S315000038B01D6002F051FC039B01930DF124090DF2EA
S315000038C00C7A534607A8CDF800900DF58062632167
S315000038D002F0A6FFD9F80030D80704D43F4B3A4887
S315000038E01D6002F039FCB44203DC0DF69C0DBDE808
S315000038F0F08FD8F80030D9F8002093420CDD079BF2
S3150000390013F8012C2AB91978012902D8C8F8002021
S3150000391055E701330793F2E7304A5AF8230015605A
S315000039203CAA0AAB52F8262053F8267091073BD5DD
S315000039300278222A18D0421E2948BB4612F8013FB7
S31500003940ABEB070CC3B1272B16D0A3F1200EBEF1AB
S315000039505E0F04D9059202F0FFFB059A204892F803
S3150000396000C00BF801CBE9E7BB4610F8012FABEB23
S31500003970070C0AB1222A14D16EAA52F826206245F3
S3150000398002DA184802F0E8FB00228BF800203846DD
S3150000399003F04EF8D8F8003002330136C8F800308C
S315000039A0A1E70BF8012BE0E7530704D504F0D8F99B
S315000039B0C7E90001EEE704F0B7F987ED000AE9E789
S315000039C0F64101001089FF1FFE3C0100553F010032
S315000039D0EC88FF1F5A3F0100053D01006088FF1F6C
S315000039E06A3F01001E3D0100FC88FF1F648DFF1F1A
S315000039F0E888FF1F38B5124B124C1868124D037831
S31500003A000BB1272B0CD1114B1149124A5B6909687E
S31500003A1013448B4288BF1346236000232B6038BDB6
S31500003A200D4A9A5C920701D15F2B03D105F0A2F9EA
S31500003A302060F2E704F094F9012102F08DFCF7E72B
S31500003A401089FF1FEC88FF1FE888FF1F308FFF1FBC
S31500003A506088FF1F00080010655D0100F0B5E7B043
S31500003A603A4B019302AF03AD2B463948009706AA9D
S31500003A70032102F0D5FE3B6833F0020302D135483C
S31500003A8002F06AFB3B68032B5CD1D5E900030278A0
S31500003A901B78232A47D12C2B47D10130286004F00C
S31500003AA05FF9044602263B689B1B012B02D029487E
S31500003AB002F052FB55F82600274F284D002104F04E
S31500003AC093F93A682B6803EB8213064693F8203085
S31500003AD09A0602D5224802F03FFB3A682B6803EBB0
S31500003AE0821393F820309B0702D41E4802F034FB61
S31500003AF01D4920460AF04CFB1B48FEF771FA3A684E
S31500003B002B6803EB821393F83230984202D9174898
S31500003B1002F022FB144930460EF000F9304602F05E
S31500003B2087FF67B0F0BD2C2B04D03B2B02D0094891
S31500003B3002F012FB286804F045F9002102F05CFF50
S31500003B400024AFE700242646ADE700BFEA3D0100AA
S31500003B501089FF1FFE3C0100FC88FF1F648DFF1FBC
S31500003B60053D0100173E01004889FF1F1E3D01006B
S31500003B70F0B55D4C5D492068ADF5497D02F0AEFAC1
S31500003B80054668B10378302B07D14278584BD35C91
S31500003B90580702D4574802F0DFFA0DF5497DF0BD0B
S31500003BA02068554902F09AFA0446002832D0534953
S31500003BB002F094FA10B1524B1D60EEE7514B524998
S31500003BC01860524B1870204602F088FA0028E4D19B
S31500003BD04F49204602F082FA20B1494B4FF0FF329E
S31500003BE01A60DAE74B49204602F078FA78B1037892
S31500003BF0434C0BB1272B02D102232360CDE742F2BF
S31500003C001072012104F0C6F801302060C5E7424871
S31500003C1002F0A2FA414B34481B788DF80C30404B29
S31500003C201B788DF80D3003AC2C2304AF65AD638093
S31500003C3005AA2B4601940097632102F0F1FD3B682B
S31500003C40022B07DD6B6822781B789A4205D06278D2
S31500003C509A4202D0304802F07FFA3B68D90702D474
S31500003C602D4802F079FA2868FF22002104F092F824
S31500003C700646002891D03B6803EBD373B0EB630F85
S31500003C808BDC6B68274F1A7863789A4216D1264CDC
S31500003C902368312B02DD254802F05EFA244A2368A8
S31500003CA01168244A42F823105A1C2260224A3968B5
S31500003CB042F82310214A13680133136055F8360081
S31500003CC00B4A03789A5C920701D15F2B06D105F067
S31500003CD051F81B4B386000221A705EE704F040F87A
S31500003CE0012102F039FBF4E71089FF1F7C3F010038
S31500003CF0655D0100803F01009B3F0100A13F01007F
S31500003D008482FF1F8082FF1FA73F01003D82FF1FA5
S31500003D10AD3F0100B43F0100FE3C0100598DFF1F7D
S31500003D20588DFF1FAC8AFF1F6487FF1F2A3F0100C3
S31500003D306088FF1F3485FF1F6887FF1FE488FF1F09
S31500003D40B08FFF1F70B50C460F490546164602F0A8
S31500003D50C5F910B11423236070BD0C49284602F042
S31500003D60BDF908B11223F6E70949284602F0B6F96B
S31500003D7008B11123EFE716B9064802F0EDF9064B34
S31500003D801B7823602846E7E7B93F0100C13F0100E1
S31500003D90C83F0100CE3F01008588FF1F30B593B0B4
S31500003DA00446039109A8274915460DF0B7FF039B62
S31500003DB013F0020103AA14D00123CDE9002304A9BC
S31500003DC0204605AB06AA03F021FF059904462846BE
S31500003DD002F048FE09A91B480DF0A0FF204613B0CB
S31500003DE030BD13F0010314D0CDE9002105AB06AABE
S31500003DF0204604A903F00AFF039BDA07044602D50E
S31500003E00049B2B60E6E7DDE90601FDF747FE286027
S31500003E10E0E7CDE90023204605AB06AA04A903F096
S31500003E20F5FE039B5B07044604D5DDE90623C5E9D9
S31500003E300023CFE79DED040A02F000FBC5E900016F
S31500003E40C8E700BF6488FF1F2DE9F04F7A4B7B4916
S31500003E501A6809781078884208BF0132ADF55F7D8F
S31500003E6008BF1A601868012207A9FFF76BFF079BB6
S31500003E70049309AC724B0890019300947BAB1BAA88
S31500003E80632108A802F0CCFC2368DC0702D46D4845
S31500003E9002F062F94FF000094E46099BB34203DC7B
S31500003EA00DF55F7DBDE8F08F7BAC002154F8260050
S31500003EB002F00EFB614B644A1B7812780890DDF81D
S31500003EC0208098F8007047B19F4200F0A780272F06
S31500003ED003D0974240F09E801746002388F80030B2
S31500003EE0564B1B78BB4213D1049BD80602D55748C4
S31500003EF002F032F9089807A9013001220890FFF76D
S31500003F0021FF079B0890D90602D4514802F024F9F4
S31500003F105048514D04F042FB2B68984209D14F4B53
S31500003F201B6813B94E4802F017F9079B43F48053F8
S31500003F3007934C4804F032FB2B68984276D1474BE6
S31500003F401B6813B9464802F007F947490B78002B5E
S31500003F5066D00AA80DF0E2FE444801230AAAD15C05
S31500003F600A5C12F007025DD15F295BD02E2959D079
S31500003F700AA9CA5454F826100AA80DF0B3FE4FF049
S31500003F80010907990AA841F4806103F02DFF079BF8
S31500003F900393002840F04B8143F400610AA803F024
S31500003FA023FFDFF8E8B03249DBF800400B6803EB8B
S31500003FB08413054693F8203003F00703079388F827
S31500003FC00070DBF800200B6803EB82134FEA841ABB
S31500003FD0B3F92230013303D1264802F0BDF8244953
S31500003FE00968DBF8003001EB8313B3F922C0BCF19A
S31500003FF0000F03DD204A9D6B012010701F4BDFF878
S3150000400088E01F68DFF87C8007F17E0305934FF098
S315000040100C0B3FE008F10101089150E71F465CE7F1
S31500004020174996E70133212B98D1A3E754F82610B8
S315000040300AA80DF073FEA4E71089FF1F548DFF1F19
S31500004040F6410100FE3C0100568DFF1FDC3F0100DA
S31500004050CE3F0100F13F01001489FF1FE488FF1FD6
S31500004060F73F0100044001003C88FF1F655D010029
S31500004070648DFF1F0B4001003C82FF1FF888FF1F65
S315000040806488FF1F6D9200004C4B0100FC88FF1FE7
S3150000409001300890089803786BB1272B0BD01A06CD
S315000040A05FD5059A9A425CDBA3F180020BFB02E224
S315000040B092684245ECD113F0800F664A54D07E37A1
S315000040C09F4251DB644F803B4FF00C0E0EFB037397
S315000040D09B689F1A7A427A41002A54D00130089090
S315000040E008980378202BF9D0BCF1000F40F39A8092
S315000040F0282B40F09780594B1A680AF122030B448B
S3150000410032315144012733F9020B20B1801A99420A
S3150000411000FB0777F7D1DFF854810898079901303B
S315000041202A460890FFF73AFE079B0890980706D59F
S31500004130D8F80020524492F8322001321544D907AB
S3150000414048BF04355A0700D50835089A1378202B3E
S315000041500DD0013F002F0DDD2C2BDED0292B0FD0EB
S315000041600AE0DEF80820A4E7DEF80830B1E70132FD
S315000041700892EAE7292B02D0394801F0EDFF17B182
S31500004180374801F0E9FF049B0793B9F1000F58D0B7
S31500004190039B7BAD43F4A05155F8260003F024FEA3
S315000041A020B155F826102F4801F0D6FF039BDFF803
S315000041B0BC8055F826002C4F43F4C05103F014FE82
S315000041C0D8F80020A50102EB8414B4F92230002BA4
S315000041D003DC94F820309B0735D509F0D5FAD8F8DA
S315000041E000205319996B3B6802EB83139963D8F847
S315000041F0003039685A1903EB811392F8201041F008
S31500004200080183F8201092F8321083F8321002F178
S3150000421022012233323231F9020B23F8020B8A4291
S31500004220F9D10EE007992A46FFF7B8FDABE7B9F1D9
S31500004230000F02D00C4B1C68AAE70A480AA901F035
S315000042408BFF023629E63B6802EB831338349C6306
S31500004250CDE700BF6D9200004C4B0100F088FF1FB8
S315000042601C4001003A400100FC88FF1F648DFF1FBF
S315000042702DE9F047ADF5487D434B019304AD65AE9E
S31500004280334663214148009505AA02F0C9FA2B6816
S31500004290D90702D43E4801F05FFF3E4FDFF80881A0
S315000042A000242B68A34203DC0DF5487DBDE8F087AA
S315000042B056F82400002102F00BF9814619F8013B5B
S315000042C0202BFBD013F0800F334A49D033490968BD
S315000042D07E31994244DB803B0C2101FB03739B68D2
S315000042E09B1A18BF012313B1294801F035FF00239B
S315000042F0484603A9039303F0F3FC039B03F007036B
S3150000430043F403620392264A1268814622B143F4BB
S31500004310C15343F010030393DFF890A0039956F8B6
S31500004320240003F061FDD8F80020DAF8003003EB32
S315000043308213B3F9223013B11A4801F00DFFD8F8F1
S315000043400030DAF80000039900EB831090F8203073
S315000043504B405A0706D0134801F0FEFE0234A0E790
S31500004360BB68BDE7CB0744BFD9F8003083634A0773
S3150000437044BFD9E90023C0E90E238B07EED5806B35
S31500004380494602F06FFBE9E7F64101001089FF1F7D
S31500004390FE3C01004C4B01006D920000F888FF1FA7
S315000043A0E488FF1F4D400100FC88FF1F648DFF1F3E
S315000043B02DE9F04FADF5537D3D4B01930DF11408FA
S315000043C00DF5DE7A534663213A48CDF800800FAAF0
S315000043D002F026FAD8F80030D90702D4364801F0A0
S315000043E0BBFE364F0026D8F80030B34203DC0DF58D
S315000043F0537DBDE8F08F5AF8261006A80DF08EFC06
S3150000440006A8FDF7EDFD06AB01382D4A1B5C9A5C4C
S3150000441002F00701520703D15F2B01D02E2B1FD1CB
S31500004420DFF8A4B006A801F049FE3B68DBF80050AF
S3150000443003930024039BA34231DD06A8FDF7D0FDBC
S315000044404FEA841906A905EB000E2B4673451A7828
S315000044500BD011F801CB624505D001344035E9E7B0
S3150000446006AB1954CCE70133F0E70AB12028F4D1A2
S31500004470A86B09F089F9DBF8001001EB09020023AB
S3150000448082F8203001F80930C2E909335384D36237
S3150000449013863B68013BA34201D13C60013C3B686B
S315000044A0A34203D1074806A901F056FE02369AE751
S315000044B0F64101001089FF1F5E400100608DFF1F5D
S315000044C0655D01006D400100648DFF1F10B5164B40
S315000044D09B78012B01F1FF310FD1144C11F8013FEC
S315000044E013B90023037010BDE25C02F00302012A37
S315000044F008BF203300F8013BF0E7022B0FD10B4C2D
S3150000450011F8013F002BECD0E25C02F00302022A14
S3150000451008BF203B00F8013BF2E700F8013B11F829
S31500004520013F002BF9D1DCE7308FFF1F655D0100ED
S315000045302DE9F74FDFF894A1DFF8949180468B467A
S31500004540044601259BF80020012A03D10BF1010B3B
S315000045500125F7E7022A3CD1BBF801200A2352BA0B
S315000045602046009392B2002301F010FB2046FDF78F
S3150000457037FD9BF80330202B0BF10306044402D0D1
S31500004580202304F8013B3378032B14D13246601EF6
S3150000459012F8013F1946F1B9E218991C01331C447F
S315000045A00E443A231370337813F0DF0F1EBF202317
S315000045B0941C53700125B3461BF8017B39065CD564
S315000045C09DB33B4803F0EAFF87420AD100252570D8
S315000045D0B8E75E46D7E712F8015F00F8015F0139D8
S315000045E0D9E796F90010327800291CDA31490968B2
S315000045F07E31914217DB0C21803A4A432E49895875
S315000046002046FFF763FF2046FDF7EAFC044414F852
S31500004610012C12F8095015F0030593D0202204F856
S31500004620012B00258EE72549EAE7DAF800207E32DD
S31500004630BA42A1BF0C22803F5743214AB4BF1F494B
S31500004640D1592046FFF742FF2046FDF7C9FC044436
S315000046501C4B14F8012C12F8092092071CBF2022CB
S3150000466004F8012B3278197891423FF471AF16495C
S315000046700D78AB1A5D425D4164E72FB1202F04F837
S31500004680017B18BF00255DE77278012A04D93A221A
S3150000469004F8012B5CE7013C14F8012C202A01D117
S315000046A04445F8D800225846227003B0BDE8F08F82
S315000046B07B4001003488FF1F04480100AD51010012
S315000046C04C4B01005B8DFF1F558DFF1FF888FF1FA8
S315000046D0655D01002DE9F041C2B00123184FDFF8F6
S315000046E06480019304460E462278531EDBB2FD2BEE
S315000046F014D8012AFBD1214602A8FFF719FF02AD03
S31500004700044615F8013B63B9314601A8FDF718FECA
S315000047102378002BE8D16378002BE5D142B0BDE8C1
S31500004720F0813A79D8F800309A4203DC314601A884
S31500004730FDF706FE15F8010C08F02EFDE1E700BFB7
S31500004740308FFF1FB88FFF1F38B50B4D0B492868F8
S3150000475001F0C4FC044640B109480121FFF7BAFF45
S315000047602046BDE8384002F037B901460448FFF755
S31500004770B1FF2868F5E700BF1089FF1F7F400100E1
S3150000478000080010F0B585B0044604F071FE314B08
S3150000479010221A6020460578202D044600F10100FB
S315000047A0F9D029063AD52C4A1268A5F17E03934220
S315000047B034DC2A4FA5F180060C2303FB06731B7914
S315000047C0DA062BD5264803F0E9FE854216D12548A0
S315000047D001F0C2FC244B14F8012B1A60234B1C6019
S315000047E01A681178202916D00C2303FB0676B368C5
S315000047F0984705B0BDE8F04008F0E0BF1C482578B2
S3150000480003F0CCFE8542E2D01A48257803F0C6FEB6
S315000048108542DFD1DBE701321A60E1E7164BEB5C3C
S315000048209B0704D15F2D02D0144801F095FC0021AE
S31500004830204601F0F5F8021E08DB0023CDE901331E
S3150000484000932146184602F019F9D2E70C4801F008
S3150000485083FCCEE7508CFF1F3488FF1F04480100FD
S315000048606E3E0100834001001489FF1F1089FF1F5F
S315000048705646010036460100655D01006A3F0100AB
S315000048802E3D01002DE9F0478A4BDFF844921B7854
S31500004890DFF84482FAB000248DF80C30864B04947D
S315000048A01B788DF80D3003AD2746AC7005AE01952B
S315000048B0009606AB1AAA1421484601F0B1FF2CB1A6
S315000048C03368022B02DD7D4801F046FC3368012B7C
S315000048D004DD079A11782A78914208D017B17848F2
S315000048E001F03AFC774B1B782B700127DEE7022B91
S315000048F007D0754A089912780978914227D103237F
S3150000490033603368042B06D0052B07D1099B1A7830
S315000049106B789A4202D06D4801F01EFC069803F0AF
S3150000492003FAB5EE400AF1EE10FA336834D0022BE2
S315000049300AD0DDE907201178624A127891420ED139
S31500004940634B1860FDF7D4FD7AB0BDE8F087042B01
S31500004950D7DD0A9B1B789342D3D10523D0E7017894
S315000049605C4A8A5C520707D503F0FAF9012101F087
S31500004970F3FC594B1860E7E7052B02D1FFF702FF5E
S31500004980E2E7534B29781B6813F8012B0AB18A42D8
S31500004990FAD1514A1360D7E7022B6AD1D8F8000042
S315000049A0DFF854A14D4E4E4F012404A9524601F0A2
S315000049B005FE316803788B421AD195F800C0421C77
S315000049C0134612F8011B11B161451346F8D1013B9C
S315000049D013F8012F202AFBD042B1272A06D003461E
S315000049E0184601330278002AFAD1DEE70134DCE703
S315000049F03A789A4209D1012C07D1034601301A7838
S31500004A00002AFAD1C8F800309EE7364A12789A4250
S31500004A1003D0354A12789A421BD1012C19D10130A4
S31500004A200646824610F8013B202BF9D02F4B049AFC
S31500004A301A60337813B9254801F08EFBC9F8006077
S31500004A4053460AF1010A1F78002FF9D1C8F8003041
S31500004A502CE7274A12789A4203D0264A12789A42BD
S31500004A60A3D1013CA1D1034601301A78002AFAD11C
S31500004A70C8E7052B0BD0164A1046136813F8011C1D
S31500004A8011B91978012984D901330360F5E70A9829
S31500004A90104B0278D35C5B073FF566AF0C4B697829
S31500004AA01B6813F8012B002A3FF473AF8A42F8D132
S31500004AB06FE700BF5B8DFF1F558DFF1FA0400100F4
S31500004AC0B0400100598DFF1F0B89FF1FFE3C0100FE
S31500004AD01089FF1F655D0100AC8AFF1F1489FF1F47
S31500004AE00489FF1F0589FF1F0689FF1F6088FF1FB6
S31500004AF00789FF1F0889FF1FBA3D010010B5144C36
S31500004B001448042386B023600023CDE9004304AA99
S31500004B1002AB006803A903F079F82368DB0708D520
S31500004B20DDED037A0C4BF0EEE77AC3ED007A06B0C2
S31500004B3010BDDDE90423002A73F10001074902DBF9
S31500004B40C1E90023F3E7524263EB4303F8E700BFF2
S31500004B50508CFF1F1889FF1F2889FF1F488AFF1FD7
S31500004B6008B5084B186803F02DF9037843B142786D
S31500004B7005490023C1E90023044B04221A6008BD3D
S31500004B800022F5E71889FF1F488AFF1F508CFF1F78
S31500004B9008B5064B186803F0C7F80AF0EDFF044B9A
S31500004BA083ED000A034B01221A6008BD1889FF1F16
S31500004BB02889FF1F508CFF1F094B10B51868FF226C
S31500004BC0002103F0E7F8044608F008FF054B012230
S31500004BD0186002701B685C70034B02221A6010BDDD
S31500004BE01889FF1FBC8AFF1F508CFF1F08B5054B95
S31500004BF0186803F0B5F8044BC3E90001034B04221F
S31500004C001A6008BD1889FF1F488AFF1F508CFF1FB6
S31500004C1008B5064B186803F087F80BF081F8044BCB
S31500004C2083ED000A034B01221A6008BD1889FF1F95
S31500004C302889FF1F508CFF1F08B50D4B186803F01D
S31500004C4073F810EE100AFCF7EFFA07A3D3E9002376
S31500004C50FCF742FBFCF702FE064B1860064B0122EE
S31500004C601A6008BDAFF30080F8C1631ADCA54C409A
S31500004C701889FF1F2889FF1F508CFF1F08B5064B98
S31500004C80186803F051F80BF03FF9044B83ED000A66
S31500004C90034B01221A6008BD1889FF1F2889FF1FD0
S31500004CA0508CFF1F2DE9F041E8B0194B019304AC7D
S31500004CB005AB08AA032107460094164801F0B0FD8B
S31500004CC0059803F04DF82368032B06460D461DD1C3
S31500004CD00798FF22002103F05DF8044608F07EFEE7
S31500004CE0DFF83880302332460093CDE901472B4662
S31500004CF0C8F8000000F091FFD8F8000001F098FE17
S31500004D00054B02221A6068B0BDE8F0810124E5E790
S31500004D10F64101001889FF1F508CFF1FBC8AFF1F38
S31500004D201020FFF7BFBF0820FFF7BCBF0220FFF728
S31500004D30B9BF00002DE9F041E8B02A4B019302AC5F
S31500004D4003AB2948009408AA052101F069FD2368F0
S31500004D50264D052B24D14FF480720121039803F0D0
S31500004D6019F8441E059803F02DF80646079803F037
S31500004D7029F804232B6090F800803778A7EB080702
S31500004D807B1CA34206DBB8F1000F03D0451C01369D
S31500004D90A74218DA164B00200021C3E900011EE0E5
S31500004DA0032B08D1039803F00DF80646059803F087
S31500004DB009F80024DDE70F4801F0CEF904232B6043
S31500004DC000231B78FFDE3019424629460CF00EFF01
S31500004DD001340028DCD1064BE517C3E9004568B06D
S31500004DE0BDE8F081F64101001889FF1F508CFF1FB6
S31500004DF0488AFF1F5E40010008B5084B186802F09C
S31500004E0093FF0AF0D5FF10EE100AFCF7EDFE044BF7
S31500004E10C3E90001034B04221A6008BD1889FF1F6D
S31500004E20488AFF1F508CFF1F08B5074B186802F011
S31500004E307BFF10EE100AFCF7D7FE044BC3E9000116
S31500004E40034B04221A6008BD1889FF1F488AFF1FFA
S31500004E50508CFF1F10B5E6B0144B019302AC03ABA8
S31500004E601348009406AA032101F0DAFC2368032BF9
S31500004E7002D0104801F070F908F0B0FD044603981E
S31500004E8002F0A0FF0146204601F0ECFD0598FF2246
S31500004E90002102F07FFF23788342074BC8BF2070B2
S31500004EA01C60064B02221A6066B010BDF641010076
S31500004EB01889FF1F5E400100BC8AFF1F508CFF1F30
S31500004EC030B5E7B01A4B019302AC03AB1948009416
S31500004ED006AA032101F0A4FC2368032B02D016487E
S31500004EE001F03AF9039802F06DFFFF220446002113
S31500004EF0059802F04FFF23788342A8BF03461D465C
S31500004F0008F06CFD0D4B1860237805705B1B0133B0
S31500004F10234402461D44AB4204D1094B02221A60C7
S31500004F2067B030BD13F8011B02F8011FF3E700BF9D
S31500004F30F64101001889FF1F5E400100BC8AFF1F71
S31500004F40508CFF1F08B5064B186802F03BFF054B57
S31500004F5000780021C3E90001034B04221A6008BD52
S31500004F601889FF1F488AFF1F508CFF1F08B5124B78
S31500004F702DED028B186802F0D7FEB5EE400AF1EE71
S31500004F8010FAB0EE408A02D10C4801F0E5F8B5EE11
S31500004F90C08AF1EE10FA02D5094801F0DDF8B0EE4C
S31500004FA0480A0BF099F8BDEC028B064B83ED000A1C
S31500004FB0054B01221A6008BD1889FF1FC040010079
S31500004FC0CF4001002889FF1F508CFF1F70B5E8B045
S31500004FD0214B019302AC03AB2048009408AA05219B
S31500004FE001F01EFC2368052B27D10798FF2200211C
S31500004FF002F0D0FE0446039802F0E4FEFF220121EF
S315000050000546059802F0C6FE064608F0E7FC144A77
S315000050101060144A022111602A78B24203460ADB64
S315000050204CB1921B01329442A8BF1446A8191C70B9
S315000050300444A0420AD168B070BD032B04D00A48CC
S3150000504001F08AF80024D6E7FF24D4E710F8012BF4
S3150000505003F8012FEDE700BFF64101001889FF1F95
S31500005060BC8AFF1F508CFF1F5E400100034B044AA1
S315000050701A60044B01221A60704700BF2889FF1F7F
S31500005080DB0F4940508CFF1F08B50D4B186802F026
S315000050904BFE10EE100AFCF7C7F807A3D3E900236E
S315000050A0FCF744FAFCF7DAFB064B1860064B0122C4
S315000050B01A6008BDAFF30080F8C1631ADCA54C4046
S315000050C01889FF1F2889FF1F508CFF1F08B50CF099
S315000050D0D5FD07EE900ADFED066A064BF8EEE77A95
S315000050E0012287EEA67A83ED007A034B1A6008BD8B
S315000050F00800004F2889FF1F508CFF1F08B50D4B75
S31500005100186802F011FEB5EEC00AF1EE10FA0A4B6D
S3150000511002DD0120002104E009D54FF0FF304FF0F9
S31500005120FF31C3E90001054B04221A6008BD0020C7
S31500005130F0E700BF1889FF1F488AFF1F508CFF1F2A
S3150000514008B5064B186802F0EFFD0AF073FE044B33
S3150000515083ED000A034B01221A6008BD1889FF1F60
S315000051602889FF1F508CFF1F08B50E4B2DED028BB3
S31500005170186802F0D9FDB5EEC00AF1EE10FAB0EEED
S31500005180408A02D5084800F0E7FFB0EE480A0BF067
S3150000519079F9BDEC028B054B83ED000A044B012225
S315000051A01A6008BD1889FF1FCF4001002889FF1F1C
S315000051B0508CFF1F08B5064B186802F0B5FD0AF0C3
S315000051C07BFE044B83ED000A034B01221A6008BDE7
S315000051D01889FF1F2889FF1F508CFF1F404B2DE9A0
S315000051E0F74318683F4E404D03F070F904233360CF
S315000051F00378262B04465BD100220023C5E9002351
S3150000520043783A481A5C02F00302022A08BF203BA0
S31500005210482B29D04F2B14D0422B2CD1013414F813
S31500005220013F303BDAB2012A25D8D5E900124818E9
S315000052304FEAE377524143EA41033A43C5E9003274
S31500005240EDE7013414F8013F303BDAB2072A12D8F1
S31500005250D5E90012D200DF1742EA517243EAC103D0
S315000052603A43C5E90032EDE7013414F8013FC15C69
S3150000527011F0440F02D103B0BDE8F08301F0030141
S31500005280D5E9006202290CBFA3F120011946402985
S31500005290CCBFA1F13703303B120142EA16724FEA46
S315000052A0E3793601334349EA0202C5E90032DCE715
S315000052B069460DF05BFB51EC100BFCF7CFFA0C4B7B
S315000052C00A22186001A920460DF0F2FBDDE9002351
S315000052D09A4288BF0123C5E9000188BF3360CAE747
S315000052E01889FF1F508CFF1F488AFF1F655D01004C
S315000052F02889FF1F7FB508F071FB1E491E4E054623
S315000053000CF00CFD08F06AFB1C4B0446186802F012
S3150000531059FD014620460CF001FD204601F07AFBBE
S315000053201748722303703D234370214602300CF068
S31500005330F5FC012003F054F9124920460CF0EEFC6E
S315000053400023CDE9006333600F4A104903AB2046C2
S3150000535002F05CFC33689B0705D50399204601F0F3
S3150000536081FB0B4B1C60294602480CF0D7FC04B0AD
S3150000537070BD00BF548CFF1F508CFF1F1889FF1F84
S315000053804889FF1F578CFF1F488AFF1F2889FF1F68
S31500005390BC8AFF1F044B05491A68D317C1E90023CD
S315000053A0034B04221A6070478082FF1F488AFF1F42
S315000053B0508CFF1F10B508F011FB064C0649206003
S315000053C00CF0ACFC206801F033FB044B02221A609F
S315000053D010BD00BFBC8AFF1F3D82FF1F508CFF1F00
S315000053E038B50B4B0B4D1868FF22002102F0D2FC9A
S315000053F0044608F0F3FA22462860202101300CF01A
S3150000540011FC2B681C70044B02221A6038BD00BFC9
S315000054101889FF1FBC8AFF1F508CFF1F2DE9F04320
S31500005420F3B0474B4748019307AD0BAB009512AA63
S31500005430072101F0F5F92B68D80702D4424800F09D
S315000054408BFE0DF118090023C9F8003005A9CDE936
S3150000545000930B9804AB08AA02F0D8FBD9F80030E9
S31500005460990702D5394800F077FE2B68022B38DD04
S315000054700D9880226FF07F0102F08CFC07462B68A6
S31500005480042B30DD0F9814226FF0130102F082FC1A
S3150000549004462B68072B29D1119802F093FC037858
S315000054A0054613B92A4800F057FE6E7806F07F06C7
S315000054B008F094FAD9F80030264DDA0780462860BD
S315000054C016D59DED050A33462246394600F0F4FB13
S315000054D0286801F0ADFA204B02221A6073B0BDE8CD
S315000054E0F0830027CBE740F2E734D2E72026DFE758
S315000054F0002CDDE908230ADA19461046FCF7CEFA35
