S024000066745F5250495F73615F436F6E74726F6C6C65725F5333324B3134362E7372656329
S3150000000000F00020ED0E0000550F0000E1FA0000A0
S31500000010550F0000550F0000550F000000000000AE
S31500000020000000000000000000000000550F000066
S31500000030550F000000000000550F0000550F00008E
S31500000040550F0000550F0000550F0000550F00001A
S31500000050550F0000550F0000550F0000550F00000A
S31500000060550F0000550F0000550F0000550F0000FA
S31500000070550F0000550F0000550F0000550F0000EA
S31500000080550F0000550F0000550F0000550F0000DA
S31500000090550F0000550F0000550F0000550F0000CA
S315000000A0EDC10000550F0000550F0000550F000070
S315000000B0550F0000550F0000550F0000550F0000AA
S315000000C0550F000099930000550F0000550F0000D2
S315000000D0550F0000550F0000550F0000550F00008A
S315000000E0550F0000550F0000550F0000550F00007A
S315000000F0550F0000550F0000550F0000550F00006A
S31500000100E1F2000041F30000550F0000550F00001A
S31500000110550F0000550F0000550F0000550F000049
S31500000120550F0000550F000049E30000550F000071
S31500000130550F0000550F0000550F0000550F000029
S31500000140550F0000550F0000550F0000550F000019
S31500000150550F0000550F0000550F0000550F000009
S31500000160550F0000550F0000550F0000550F0000F9
S31500000170550F0000550F0000550F0000550F0000E9
S31500000180550F0000550F0000550F0000550F0000D9
S31500000190550F0000550F0000550F0000550F0000C9
S315000001A0550F0000550F0000550F0000550F0000B9
S315000001B0550F0000550F0000550F0000550F0000A9
S315000001C0550F0000550F0000550F0000550F000099
S315000001D0550F0000550F0000550F0000550F000089
S315000001E0550F0000550F0000550F0000550F000079
S315000001F0550F0000550F0000550F0000550F000069
S31500000200550F0000550F0000550F0000550F000058
S31500000210550F0000550F0000550F0000550F000048
S31500000220550F0000550F0000550F0000550F000038
S31500000230550F0000550F0000550F0000550F000028
S31500000240550F0000550F0000550F0000550F000018
S31500000250550F0000550F0000550F0000EDD60000A9
S31500000260EDD60000EDD60000EDD60000EDD600007C
S31500000270EDD60000EDD60000EDD60000EDD600006C
S31500000280EDD60000EDD60000EDD60000EDD600005C
S31500000290EDD60000EDD60000EDD60000EDD600004C
S315000002A0EDD60000EDD60000EDD60000EDD600003C
S315000002B0EDD60000EDD60000EDD60000EDD600002C
S315000002C0EDD60000EDD60000EDD60000EDD600001C
S315000002D0EDD60000EDD60000EDD60000EDD600000C
S315000002E0EDD60000EDD60000EDD60000EDD60000FC
S315000002F0EDD60000EDD60000EDD60000EDD60000EC
S31500000300EDD60000EDD60000EDD60000EDD60000DB
S31500000310EDD60000EDD60000EDD60000EDD60000CB
S31500000320EDD60000EDD60000EDD60000EDD60000BB
S31500000330EDD60000EDD60000EDD60000EDD60000AB
S31500000340EDD60000EDD60000EDD60000EDD600009B
S31500000350EDD60000EDD60000EDD60000EDD600008B
S31500000360EDD60000EDD60000EDD60000EDD600007B
S31500000370EDD60000EDD60000EDD60000EDD600006B
S31500000380EDD60000EDD60000EDD60000EDD600005B
S31500000390EDD60000EDD60000EDD60000EDD600004B
S315000003A0EDD60000EDD60000EDD60000EDD600003B
S315000003B0EDD60000EDD60000EDD60000EDD600002B
S315000003C0EDD60000EDD60000EDD60000EDD600001B
S315000003D0EDD60000EDD60000EDD60000EDD600000B
S315000003E0EDD60000EDD60000EDD60000EDD60000FB
S315000003F0EDD60000EDD60000EDD60000FFFFFFFFB2
S31500000400FFFFFFFFFFFFFFFFFFFFFFFFFE7FFFFF77
S3150000041000F00020C9000020C9000020C90000200B
S31500000420C9000020C9000020C9000020000000000B
S31500000430000000000000000000000000C9000020CD
S31500000440C900002000000000C9000020C9000020EB
S31500000450C9000020C9000020C9000020C9000020F2
S31500000460C9000020C9000020C9000020C9000020E2
S31500000470C9000020C9000020C9000020C9000020D2
S31500000480C9000020C9000020C9000020C9000020C2
S31500000490C9000020C9000020C9000020C9000020B2
S315000004A0C9000020C9000020C9000020C9000020A2
S315000004B0C9000020C9000020C9000020C900002092
S315000004C0C9000020C9000020C9000020C900002082
S315000004D0C9000020ED030020FEE74FF0E021044BA9
S315000004E0D1F80C2D92B21343C1F80C3D704700BFF2
S315000004F00400FA0530B50B4B0A22834203D80A24BE
S3150000050023B90B7030BDB3FBF2F3F6E7B0FBF3F2A1
S3150000051002F1300503FB120001F8015BB3FBF4F3B3
S31500000520EEE700BFA0860100A0F13003DBB2092B85
S3150000053084BF3738C3B21846704708B502460078FC
S31500000540FFF7F2FF01465078FFF7EEFF00EB0110D0
S31500000550C0B208BD38B50546FFF7EFFF0446A81C34
S31500000560FFF7EBFF00EB042080B238BD38B5054637
S31500000570FFF7E3FF0446A81CFFF7ECFF00EB04407F
S3150000058038BD38B50546FFF7E5FF0446281DFFF7D9
S31500000590E1FF00EB044038BD2DE9F0470024074693
S315000005A089461646254603F1FF3802F1FF3AA64270
S315000005B007EB440002DC2846BDE8F087FFF7BDFFE5
S315000005C0A04505DCA2451EBF494601F8010B894638
S315000005D00544EDB20134EAE7F8B5002407460E46B5
S315000005E02546AE4207EB450001DC2046F8BDFFF785
S315000005F0A4FF0444E4B20135F3E7264AF8B51368CC
S31500000600013313600378532B05460F463ED14678D7
S315000006100230FFF792FF303E032E044605F1040533
S315000006200BD0072E2CD08EBB3E7038732146284641
S31500000630FFF7D2FF2044C0B21DE03E702846FFF708
S31500000640A0FF631F152C78603B7321D8124BE34043
S31500000650DB071DD505232246B9682846FFF79CFF10
S315000006603B7B03F0F7022044042AC0B203D1BA68E8
S315000006704FF0FF31D150FF280CBF00200420F8BDF9
S315000006803E702846FFF77DFF7860CFE70320F6E748
S315000006900220F4E7300EFF1F40202000A0F5801353
S315000006A0B3F17F6F70B501D2012070BD264B984221
S315000006B0FAD802680B689A4203D142684B689A429C
S315000006C03FD000F17043B3F5803F204D204C214AC6
S315000006D038BF43F4000040F0E0632B600B682360F2
S315000006E04B6813601C4B80261E701E783606FCD5A0
S315000006F01E7816F0700FD7D14FF0007640F00070DC
S31500000700286026600E68166080261E70124B1E78C2
S315000007103606FCD51E7816F0700FC5D128604FF04E
S31500000720007020604968116080221A700A4B1A789E
S315000007301206FCD51B7813F0700F14BF01200020A1
S31500000740B3E70020B1E700BFFFFF0010040002403E
S31500000750080002400C0002400000024038B5054681
S315000007604068B0F5002F04DB00F17043B3F5803F1D
S3150000077019D22B7B082B05D0102B08D0012B12D0B9
S31500000780052038BDA968BDE83840FFF787BFA968CE
S31500000790FFF784FF0446D5E9010108310830FFF769
S315000007A07DFF2044EDE70020EBE7124A4FF000639F
S315000007B01360114B8021197019780906FCD5402168
S315000007C01970197811F0300F11D14FF008611160CE
S315000007D080221A70084B1A781206FCD540221A702D
S315000007E01B7813F0300F14BF012000207047012042
S315000007F0704700BF040002400000024070B5274A5F
S315000008002749284D28484FF4602653699C020BD48B
S31500000810264C274A2149274D20681368984202D062
S315000008204B691B0223D470BD536913F4602F02D0A9
S31500000830D3695661E9E7D4690B68EC540B68013358
S315000008405C4204F07F0403F07F0358BF63420B60F1
S315000008500C6803689C42D8D1036801335C4204F0FB
S315000008607F0403F07F0358BF63420360CDE713683C
S31500000870EB5CCB6113680133584200F07F0003F054
S315000008807F0358BF4342136020681368984202BF33
S315000008908B6923F400038B61BEE700BF00B00640FE
S315000008A0C40EFF1F440EFF1FC80EFF1FE80DFF1FDB
S315000008B0EC0DFF1F680DFF1F074A10681368013310
S315000008C0594201F07F0103F07F0358BF4B4213608A
S315000008D0024B185C704700BFC80EFF1F440EFF1F77
S315000008E0074A08491368C85413680133594201F08E
S315000008F07F0103F07F0358BF4B421360704700BF70
S31500000900E80DFF1F680DFF1FF8B5184F184E044677
S315000009103D463A6833689A42FBD0FFF7CDFFA0F117
S315000009204103DBB2192B04D9A0F13003DBB2092B4A
S3150000093002D804F8010BECE70D2812D1002323702E
S315000009402A6833689A42FBD02A680A4B9A5C0D2AB9
S3150000095003D02A689B5C0A2B06D1BDE8F840FFF756
S31500000960ABBF0A28D5D1E9E7F8BD00BFC80EFF1F07
S31500000970C40EFF1F440EFF1F0348044902680B689C
S315000009809A42FBD0FFF798BFC80EFF1FC40EFF1F89
S3150000099038B572B60B4B9A69110209D562B60A4987
S315000009A00A4C0D682268954202D19A691202F8D45F
S315000009B0FFF796FF034A936943F40003936162B617
S315000009C038BD00BF00B00640E80DFF1FEC0DFF1F4D
S315000009D010B5441E14F8010F00B910BDFFF7D8FF7B
S315000009E0F8E772B64FF0E023184AC3F8082D184B03
S315000009F0DA68B2F5E13F00DC12B94FF4E132DA60B1
S31500000A00DA68144B120193FBF2F3134A0021C2F881
S31500000A10AC114FF04071C2F8AC11D2F8AC1141F0F4
S31500000A208041C2F8AC11C3F30C0302F5C04243F097
S31500000A3070631361882393624FF430139361074AFE
S31500000A40536843F00203536062B67047000000200B
S31500000A50300FFF1F006CDC020050064000E100E092
S31500000A602DE9F0434C4D4D4BAB60A1B0FFF7B9FFFC
S31500000A704B48FFF7ADFF4B48FFF7AAFF4A48FFF781
S31500000A80A7FFFFF779FF00F0DF04A4F14303012B72
S31500000A90F7D84648FFF79CFF432C53D14448FFF74D
S31500000AA097FF00264348DFF8F080434FDFF82C918C
S31500000AB0FFF78EFF00246846FFF726FF414668468B
S31500000AC0FFF79BFD0444E4B260B13C48FFF780FFAA
S31500000AD038686946FFF70EFD6846FFF779FF334829
S31500000AE0FFF776FF56B195F90030032B06D1404645
S31500000AF0FFF734FE10B13248FFF76AFF3968642207
S31500000B0091FBF2F302FB131333B92E48FFF760FF94
S31500000B104FF40073C9F80C30396840F6B83291FBCF
S31500000B20F2F302FB131313B92048FFF751FF95F9AF
S31500000B300030062BBFDD66BB4CBB2348FFF748FFE2
S31500000B4022480FE02248FFF743FFFFF715FF00F0AA
S31500000B50DF005928F9D11F48FFF73AFFFFF725FEB6
S31500000B6080B11D48FFF734FF1C4B4FF400729A60AA
S31500000B70FFF702FF1A4B00221A60FFF7AEFC21B006
S31500000B80BDE8F0831748FFF723FF01268AE71648DA
S31500000B90D4E71648D2E700BF340EFF1FF00DFF1F43
S31500000BA0E0070020080800202E0800205808002032
S31500000BB05B0800200A090020300EFF1F29090020CB
S31500000BC0430900206109002063090020B0090020C4
S31500000BD081080020AE080020D208002000F10F4056
S31500000BE01002FF1FEE0800207D0900209409002056
S31500000BF00D0A2A2A2A2066742D5250492D73612027
S31500000C00426F6F744C6F616465722056312E3020CE
S31500000C102A2A2A0D0A0D0A0050726573730D0A3CC2
S31500000C20443E20746F20646F776E6C6F6164206E33
S31500000C306577206669726D776172650D0A003C43BF
S31500000C403E20746F20636865636B20696E74656708
S31500000C5072697479206F66206669726D7761726554
S31500000C602066696C650D0A000D0A00436865636BB2
S31500000C70696E6720696E74656772697479206F663C
S31500000C80206669726D776172652066696C650D0A0A
S31500000C900041524520594F55205355524520544F37
S31500000CA020444F574E4C4F4144204E45572046490D
S31500000CB0524D574152453F202859290D0A004F6B86
S31500000CC02C206C6574277320646F776E6C6F61647B
S31500000CD02061206E6577206669726D776172650D99
S31500000CE00A002A2A2A20466C61736820657261739D
S31500000CF065206572726F72202A2A2A0D0A00466CD8
S31500000D00617368207375636365737366756C6C795C
S31500000D10206572617365640D0A000D0A5374617271
S31500000D20742066696C65207472616E7366657220E4
S31500000D306E6F772E2E2E0D0A000D0A532D52656307
S31500000D406F7264206572726F7220696E206C696EB4
S31500000D506520002A2A2A20466C6173682070726F0B
S31500000D606772616D206572726F72202A2A2A0D0AD7
S31500000D70002A000D0A4E6F206572726F727320662C
S31500000D806F756E6420696E2066696C65000D0A4594
S31500000D9072726F727320666F756E6420696E20665C
S31500000DA0696C65000D0A4E6F206572726F72732052
S31500000DB0647572696E67207570646174650D0A00EA
S31500000DC00D0A416C6C20646F6E652E2E2E50726576
S31500000DD0737320616E79206B657920666F7220725D
S30D00000DE06573657400FFFFFF57
S31500000DE80348044B834202D0034B03B118477047AC
S31500000DF81002FF1F1002FF1F0000000005480649E9
S31500000E080B1AD90F01EBA301491002D0034B03B10A
S31500000E18184770471002FF1F1002FF1F000000004E
S31500000E2810B5064C237843B9FFF7DAFF044B13B124
S31500000E380448AFF300800123237010BD2002FF1F72
S31500000E4800000000EC5F010008B5044B1BB1044923
S31500000E580448AFF30080BDE80840CFE70000000073
S31500000E682402FF1FEC5F0100A3F5803A704700BF1C
S31500000E78174B002B08BF134B9D46FFF7F5FF0021C4
S31500000E888B460F461348144A121A10F0CFFE0E4B23
S31500000E98002B00D098470D4B002B00D09847002018
S31500000EA8002104000D000D48002802D00C48AFF3BD
S31500000EB8008010F07BFE200029000CF07BF910F072
S31500000EC861FE00BF000008000000000000000000EE
S31500000ED800F000202002FF1F9812FF1F00000000EC
S31500000EE80000000072B64FF000014FF000024FF00C
S31500000EF800034FF000044FF000054FF000064FF0D6
S31500000F080007B846B946BA46BB46BC460A490B4A24
S31500000F18521A013A05DD0020042308601944043AF0
S31500000F28FBDA07488546074880470748804762B680
S31500000F38FFF79EFFFEE700000000FF1F00F00020FD
S31500000F4800F00020E91F0000312000000CF0CABBA9
S31500000F5881F0004102E000BF83F0004330B54FEA5C
S31500000F6841044FEA430594EA050F08BF90EA020FC9
S31500000F781FBF54EA000C55EA020C7FEA645C7FEA5C
S31500000F88655C00F0E2804FEA5454D4EB5555B8BF7F
S31500000F986D420CDD2C4480EA020281EA030382EAF0
S31500000FA8000083EA010180EA020281EA0303362D82
S31500000FB888BF30BD11F0004F4FEA01314FF4801C55
S31500000FC84CEA113102D0404261EB410113F0004F67
S31500000FD84FEA03334CEA133302D0524263EB43031E
S31500000FE894EA050F00F0A780A4F10104D5F1200EBC
S31500000FF80DDB02FA0EFC22FA05F2801841F1000117
S3150000100803FA0EF2801843FA05F359410EE0A5F1EA
S3150000101820050EF1200E012A03FA0EFC28BF4CF01B
S31500001028020C43FA05F3C01851EBE37101F00045D1
S3150000103807D54FF0000EDCF1000C7EEB00006EEBDE
S315000010480101B1F5801F1BD3B1F5001F0CD3490868
S315000010585FEA30004FEA3C0C04F101044FEA4452BF
S3150000106812F5800F80F09A80BCF1004F08BF5FEA46
S31500001078500C50F1000041EB045141EA050130BD26
S315000010885FEA4C0C404141EB0101013C28BFB1F538
S31500001098801FE9D291F0000F04BF01460020B1FA83
S315000010A881F308BF2033A3F10B03B3F120020CDA56
S315000010B80C3208DD02F1140CC2F10C0201FA0CF034
S315000010C821FA02F10CE002F11402D8BFC2F1200C99
S315000010D801FA02F120FA0CFCDCBF41EA0C0190404F
S315000010E8E41AA2BF01EB0451294330BD6FEA040498
S315000010F81F3C1CDA0C340EDC04F11404C4F1200283
S3150000110820FA04F001FA02F340EA030021FA04F394
S3150000111845EA030130BDC4F10C04C4F1200220FAEB
S3150000112802F001FA04F340EA0300294630BD21FA29
S3150000113804F0294630BD94F0000F83F4801306BFEF
S3150000114881F480110134013D4EE77FEA645C18BFE3
S315000011587FEA655C29D094EA050F08BF90EA020F7A
S3150000116805D054EA000C04BF1946104630BD91EA72
S31500001178030F1EBF0021002030BD5FEA545C05D175
S315000011884000494128BF41F0004130BD14F58004B4
S315000011983CBF01F5801130BD01F0004545F0FE4128
S315000011A841F470014FF0000030BD7FEA645C1ABF5D
S315000011B8194610467FEA655C1CBF0B46024650EA94
S315000011C8013406BF52EA033591EA030F41F40021C0
S315000011D830BD00BF90F0000F04BF0021704730B546
S315000011E84FF4806404F132044FF000054FF000011B
S315000011F850E700BF90F0000F04BF0021704730B5DC
S315000012084FF4806404F1320410F0004548BF4042B0
S315000012184FF000013EE700BF42004FEAE2014FEA05
S3150000122831014FEA02701FBF12F07F4393F07F4FE0
S3150000123881F06051704732F07F4208BF704793F0E3
S315000012487F4F04BF41F40021704730B54FF46074F6
S3150000125801F0004521F000411CE700BF50EA0102F9
S3150000126808BF704730B54FF000050AE050EA0102A2
S3150000127808BF704730B511F0004502D5404261EB12
S3150000128841014FF4806404F132045FEA915C3FF453
S31500001298D8AE4FF003025FEADC0C18BF03325FEAF0
S315000012A8DC0C18BF033202EBDC02C2F1200300FAA1
S315000012B803FC20FA02F001FA03FE40EA0E0021FAC6
S315000012C802F11444BDE600BF70B54FF0FF0C4CF4B4
S315000012D8E06C1CEA11541DBF1CEA135594EA0C0F66
S315000012E895EA0C0F00F0DEF82C4481EA030621EAA1
S315000012F84C5123EA4C5350EA013518BF52EA0335DC
S3150000130841F4801143F4801338D0A0FB02CE4FF08D
S315000013180005E1FB02E506F00042E0FB03E54FF0BD
S315000013280006E1FB03569CF0000F18BF4EF0010EB5
S31500001338A4F1FF04B6F5007F64F5407404D25FEAB1
S315000013484E0E6D4146EB060642EAC62141EA555164
S315000013584FEAC52040EA5E504FEACE2EB4F1FD0CA6
S3150000136888BFBCF5E06F1ED8BEF1004F08BF5FEA24
S31500001378500E50F1000041EB045170BD06F00046D6
S3150000138846EA010140EA020081EA0301B4EB5C0483
S31500001398C2BFD4EB0C0541EA045170BD41F480117B
S315000013A84FF0000E013C00F3AB8014F1360FDEBFA0
S315000013B8002001F0004170BDC4F10004203C35DA7C
S315000013C80C341BDC04F11404C4F1200500FA05F3FF
S315000013D820FA04F001FA05F240EA020001F00042A0
S315000013E821F0004110EBD37021FA04F642EB060116
S315000013F85EEA430E08BF20EAD37070BDC4F10C0440
S31500001408C4F1200500FA04F320FA05F001FA04F203
S3150000141840EA020001F0004110EBD37041F10001EF
S315000014285EEA430E08BF20EAD37070BDC4F12005FA
S3150000143800FA05F24EEA020E20FA04F301FA05F262
S3150000144843EA020321FA04F001F0004121FA04F20A
S3150000145820EA020000EBD3705EEA430E08BF20EADA
S31500001468D37070BD94F0000F0FD101F00046400014
S3150000147841EB010111F4801F08BF013CF7D041EA96
S31500001488060195F0000F18BF704703F0004652009A
S3150000149843EB030313F4801F08BF013DF7D043EA6B
S315000014A80603704794EA0C0F0CEA135518BF95EA21
S315000014B80C0F0CD050EA410618BF52EA4306D1D1A8
S315000014C881EA030101F000414FF0000070BD50EAC7
S315000014D8410606BF1046194652EA430619D094EA51
S315000014E80C0F02D150EA013613D195EA0C0F05D13B
S315000014F852EA03361CBF104619460AD181EA03018F
S3150000150801F0004141F0FE4141F470014FF0000046
S3150000151870BD41F0FE4141F4780170BD70B54FF0E1
S31500001528FF0C4CF4E06C1CEA11541DBF1CEA135561
S3150000153894EA0C0F95EA0C0F00F0A7F8A4EB050443
S3150000154881EA030E52EA03354FEA013100F088803A
S315000015584FEA03334FF0805545EA131343EA126303
S315000015684FEA022245EA111545EA10654FEA0026B8
S315000015780EF000419D4208BF964244F1FD0404F571
S31500001588407402D25B084FEA3202B61A65EB0305CD
S315000015985B084FEA32024FF480104FF4002CB6EB8A
S315000015A8020E75EB030E22BFB61A754640EA0C000A
S315000015B85B084FEA3202B6EB020E75EB030E22BF4A
S315000015C8B61A754640EA5C005B084FEA3202B6EB8B
S315000015D8020E75EB030E22BFB61A754640EA9C004A
S315000015E85B084FEA3202B6EB020E75EB030E22BF1A
S315000015F8B61A754640EADC0055EA060E18D04FEAD8
S31500001608051545EA16754FEA06164FEAC30343EA77
S3150000161852734FEAC2025FEA1C1CC0D111F4801F44
S315000016280BD141EA00014FF000004FF0004CB6E73D
S3150000163811F4801F04BF01430020B4F1FD0C88BFDC
S31500001648BCF5E06F3FF6AFAEB5EB030C04BFB6EBE7
S31500001658020C5FEA500C50F1000041EB045170BDDA
S315000016680EF0004E4EEA113114EB5C04C2BFD4EB07
S315000016780C0541EA045170BD41F480114FF0000E8B
S31500001688013C90E645EA060E8DE60CEA135594EA07
S315000016980C0F08BF95EA0C0F3FF43BAF94EA0C0F0A
S315000016A80AD150EA01347FF434AF95EA0C0F7FF47F
S315000016B825AF104619462CE795EA0C0F06D152EAD3
S315000016C803353FF4FDAE1046194622E750EA4106B7
S315000016D818BF52EA43067FF4C5AE50EA41047FF4C8
S315000016E80DAF52EA43057FF4EBAE12E74FF0FF3C2D
S315000016F806E000BF4FF0010C02E000BF4FF0010CFE
S315000017084DF804CD4FEA410C7FEA6C5C4FEA430C76
S3150000171818BF7FEA6C5C1BD001B050EA410C0CBFC5
S3150000172852EA430C91EA030F02BF90EA020F002027
S31500001738704710F1000F91EA030F58BF994208BF8E
S3150000174890422CBFD8176FEAE37040F0010070474B
S315000017584FEA410C7FEA6C5C02D150EA013C07D1A2
S315000017684FEA430C7FEA6C5CD6D152EA033CD3D0ED
S315000017785DF8040B704700BF8446104662468C46E7
S315000017881946634600E000BF01B5FFF7B7FF00281A
S3150000179848BF10F1000F01BD4DF808EDFFF7F4FF43
S315000017A80CBF012000205DF808FB00BF4DF808EDCE
S315000017B8FFF7EAFF34BF012000205DF808FB00BFF1
S315000017C84DF808EDFFF7E0FF94BF012000205DF813
S315000017D808FB00BF4DF808EDFFF7CEFF94BF0120C8
S315000017E800205DF808FB00BF4DF808EDFFF7C4FFC1
S315000017F834BF012000205DF808FB00BF4FEA410214
S3150000180812F5001215D211D56FF47873B3EB625244
S3150000181812D94FEAC12343F0004343EA505311F06B
S31500001828004F23FA02F018BF404270474FF00000FD
S31500001838704750EA013005D111F0004008BF6FF03B
S31500001848004070474FF00000704700BF4FEA410262
S31500001858B2F1E04324BFB3F5001CDCF1FE5C0DD900
S3150000186801F0004C4FEAC0024CEA5070B2F1004F4A
S3150000187840EB830008BF20F00100704711F0804F4D
S3150000188821D113F13872BCBF01F00040704741F412
S3150000189880114FEA5252C2F11802C2F1200C10FA16
S315000018A80CF320FA02F018BF40F001004FEAC123FA
S315000018B84FEAD32303FA0CFC40EA0C0023FA02F39E
S315000018C84FEA4303CCE77FEA625307D150EA013374
S315000018D81EBF4FF0FE4040F44000704701F0004044
S315000018E840F0FE4040F40000704700BF80F0004022
S315000018F802E000BF81F0004142001FBF5FEA4103DA
S3150000190892EA030F7FEA226C7FEA236C6AD04FEAD9
S315000019181262D2EB1363C1BFD2184140484041401E
S31500001928B8BF5B42192B88BF704710F0004F40F4D0
S31500001938000020F07F4018BF404211F0004F41F4EC
S31500001948000121F07F4118BF494292EA030F3FD0B8
S31500001958A2F1010241FA03FC10EB0C00C3F12003CB
S3150000196801FA03F100F0004302D5494260EB40005A
S31500001978B0F5000F13D3B0F1807F06D340084FEAC5
S31500001988310102F10102FE2A51D2B1F1004F40EBBA
S31500001998C25008BF20F0010040EA03007047490022
S315000019A840EB0000013A28BFB0F5000FEDD2B0FABF
S315000019B880FCACF1080CB2EB0C0200FA0CF0AABFE2
S315000019C800EBC25052421843BCBFD0401843704780
S315000019D892F0000F81F4000106BF80F40000013286
S315000019E8013BB5E74FEA41037FEA226C18BF7FEA5D
S315000019F8236C21D092EA030F04D092F0000F08BF9F
S31500001A080846704790EA010F1CBF0020704712F085
S31500001A187F4F04D1400028BF40F00040704712F1C4
S31500001A2800723CBF00F50000704700F0004343F029
S31500001A38FE4040F4000070477FEA226216BF08465F
S31500001A487FEA23630146420206BF5FEA412390EA22
S31500001A58010F40F4800070474FF0000304E000BF18
S31500001A6810F0004348BF40425FEA000C08BF7047C9
S31500001A7843F0964301464FF000001CE050EA01028D
S31500001A8808BF70474FF000030AE000BF50EA0102A2
S31500001A9808BF704711F0004302D5404261EB41018F
S31500001AA85FEA010C02BF84460146002043F0B643B4
S31500001AB808BFA3F18053A3F50003BCFA8CF2083AD9
S31500001AC8A3EBC25310DB01FA02FC634400FA02FCE2
S31500001AD8C2F12002BCF1004F20FA02F243EB0200E9
S31500001AE808BF20F00100704702F1200201FA02FC4B
S31500001AF8C2F1200250EA4C0021FA02F243EB02003E
S31500001B0808BF20EADC7070477BB972B90029BEBFEE
S31500001B1800204FF0004106E008BF00281CBF6FF008
S31500001B2800414FF0FF3000F023BAADF1080C6DE923
S31500001B3804CE002909DB002B1ADB00F0B7F8DDF824
S31500001B4804E0DDE9022304B07047404261EB41013D
S31500001B58002B1BDB00F0AAF8DDF804E0DDE9022320
S31500001B6804B0404261EB4101524263EB43037047C4
S31500001B78524263EB430300F099F8DDF804E0DDE92F
S31500001B88022304B0404261EB41017047524263EBC5
S31500001B98430300F08BF8DDF804E0DDE9022304B026
S31500001BA8524263EB4303704753B94AB9002908BF49
S31500001BB800281CBF4FF0FF314FF0FF3000F0D8B9B6
S31500001BC8ADF1080C6DE904CE00F070F8DDF804E01C
S31500001BD8DDE9022304B0704707EE900AF5EEC07AF5
S31500001BE8F1EE10FA01D400F023B8F1EE677A08B5E1
S31500001BF817EE900A00F01CF8404261EB410108BD5F
S31500001C0838B50022002304460D46FFF7CFFD28B954
S31500001C1820462946BDE8384000F02AB8204605F196
S31500001C28004100F025F8404261EB410138BD00BF94
S31500001C38D0B5FFF7F1FA0C4B002206460F46FFF720
S31500001C4843FB00F097F90446FFF7C4FA074B002256
S31500001C58FFF73AFB02460B4630463946FFF77CF952
S31500001C6800F088F92146D0BD0000F03D0000F041A3
S31500001C78D0B50C4B002206460F46FFF725FB00F0B1
S31500001C8879F90446FFF7A6FA074B0022FFF71CFB73
S31500001C9802460B4630463946FFF75EF900F06AF908
S31500001CA82146D0BD0000F03D0000F0412DE9F04787
S31500001CB8089D0E4604468C46002B40F081808A42D9
S31500001CC8174645D9B2FA82F24AB1C2F1200106FA9C
S31500001CD802F320FA01F1974041EA030C94404FEAD7
S31500001CE8174E230CBCFBFEF6B9B20EFB16CC43EA24
S31500001CF80C4306FB01F0984209D9FB1806F1FF3C94
S31500001D0880F01581984240F21281023E3B441B1A2C
S31500001D18A4B2B3FBFEF00EFB103344EA034400FB07
S31500001D2801F1A14209D93C1900F1FF3380F0018184
S31500001D38A14240F2FE8002383C44641A40EA06405A
S31500001D4800211DB1D4400023C5E90043BDE8F08752
S31500001D5802B9FFDEB2FA82F2002A4FD1CB1B4FEA54
S31500001D68174E1FFA87F80121B3FBFEFC260C0EFB63
S31500001D781C3346EA034608FB0CF3B34207D9BE19DF
S31500001D880CF1FF3002D2B34200F2EB808446F61A19
S31500001D98A3B2B6FBFEF00EFB106643EA064408FB48
S31500001DA800F8A04507D93C1900F1FF3302D2A04537
S31500001DB800F2D2801846A4EB080440EA0C40C0E7BB
S31500001DC88B4208D9002D00F0AF800021C5E9000636
S31500001DD80846BDE8F087B3FA83F1002949D1B34232
S31500001DE802D3824200F2BB80841A66EB0303012009
S31500001DF89C46002DAAD0C5E9004CA7E7C2F12003EE
S31500001E089740D8409140DE404FEA174E08434FEAC4
S31500001E18104CB6FBFEF11FFA87F80EFB11664CEA6A
S31500001E28064601FB08F3B34204FA02F409D9BE19BF
S31500001E3801F1FF3C80F08E80B34240F28B8002397C
S31500001E483E44F31A86B2B3FBFEF00EFB103346EAA5
S31500001E58034600FB08F3B34207D9BE1900F1FF3C5D
S31500001E6874D2B34272D902383E44F31A40EA0141A9
S31500001E787AE7C1F1200703FA01F422FA07F31C43B3
S31500001E8820FA07F906FA01F34FEA144CFE4049EA2C
S31500001E9803094FEA1943B6FBFCFE1FFA84F80CFB4C
S31500001EA81E6643EA06460EFB08FAB24502FA01F236
S31500001EB800FA01F308D9A6190EF1FF3048D2B24547
S31500001EC846D9AEF1020E2644A6EB0A061FFA89F990
S31500001ED8B6FBFCF00CFB106649EA064600FB08F860
S31500001EE8B04507D9A61900F1FF3C2DD2B0452BD92C
S31500001EF80238264440EA0E40A6EB0806A0FB0289F3
S31500001F084E45C446CE4618D315D075B3B3EB0C026E
S31500001F1866EB0E0606FA07F722FA01F3CE401F43D0
S31500001F28C5E90076002111E7294628460EE76646E8
S31500001F38EDE6184601E74345E7D2B8EB020C69EB34
S31500001F4804040138A646E0E76046D3E760468CE716
S31500001F588646B9E7614674E702383C442BE70846EB
S31500001F6847E7ACF1020C3E4411E72946EEE600BF0E
S31500001F78704700BF4A0011D212F5001211D20DD5D2
S31500001F886FF47873B3EB62520ED44FEAC12343F071
S31500001F98004343EA505323FA02F070474FF000001B
S31500001FA8704750EA013002D14FF0FF3070474FF0CA
S31500001FB800007047EC46A0E8F05F4FF0000070475D
S31500001FC8B0E8F05FE546080008BF0120704700BF8B
S31500001FD8034613F8012B002AFBD1181A013870475B
S31500001FE84FF0E022D2F8883D43F47003C2F8883DEA
S31500001FF8064BA2F1DB62A2F5D7525A605A6842F242
S3150000200820121A604FF6FF729A607047002005404A
S315000020184FF0E021034BD1F80C2D92B21343C1F8CF
S315000020280C3D70470400FA05134B1449144A8B42B9
S315000020380FD1144B1449154A99420FD1144B154A1E
S31500002048002193420FD1144B1449154A99420DD1D8
S31500002058704713F8010B02F8010BE8E713F8010BB8
S3150000206802F8010BE8E703F8011BEAE713F8010B8E
S3150000207802F8010BEAE700BF286001003862010098
S315000020880000FF1F38620100386201002002FF1FAE
S315000020982002FF1F9812FF1F3862010038620100F4
S315000020A80000FF1F704700002DE9F04FADF54D7D8C
S315000020B83E4B01930DF1140869AF3B463C48CDF8F9
S315000020C8008009AA632104F09FFBD8F80030002B92
S315000020D867DD38680378232B63D10130386005F053
S315000020E833FED8F80030012B04465DDD7B681B788B
S315000020F82C2B14BF01250225DFF8BC9001230DF116
S31500002108100A12E057F8256033782C2B05D12146A2
S3150000211809200CF0D9F8002306E03B2BFBD04FF042
S31500002128000B337873B901230135D8F80020AA4289
S31500002138E8DC1BB11F48214604F052FC0DF54D7D25
S31500002148BDE8F08F0123CAF800B003A9CDE900A3C2
S31500002158304602AB06AA05F04DFDDAF80030D9077D
S3150000216806460FD59DED030A202340F2E7320021EB
S31500002178484603F095FD484604F04EFC214604F017
S315000021882FFCCEE75A0707D50A2300934846DDE910
S31500002198062303F0EFFCEEE79B07C2D5029821461B
S315000021A8EDE700242546A7E70125A5E7073D010039
S315000021B81009FF1F0A3D01004809FF1F2DE9F041DC
S315000021C84E4B4F4D1A6829684E4E4F4888B07E329E
S315000021D80C270C4611F8013B002B00F08B8013F0FE
S315000021E8800F53D09A4251DB803B07FB03639B6801
S315000021F88342EED12868002104F05EF903460130D7
S315000022081A78202AFAD09C4202D0404803F098FF58
S3150000221828683F4E002105F0DBFD3E4A3168054639
S31500002228106801EB8011904691F8327091F82010F1
S3150000223811F0200F02D0384803F082FFD8F80020AA
S31500002248336803EB8213601C93F8203013F0020105
S3150000225803AA1DD0022303930023CDE9002304A972
S3150000226805AB06AA05F0C6FC059B1B78BB420446CF
S3150000227802D92A4803F064FF0599284604F0E6FBCC
S31500002288204604F09DFB08B0BDE8F081B368AFE7CF
S3150000229813F0010315D00123CDE90021039306AA03
S315000022A805AB04A905F0A6FC039BDA07044602D58C
S315000022B8049B2B60E4E7DDE90601FFF7E7FB2860EE
S315000022C8DEE70421CDE90023039105AB06AA04A99C
S315000022D805F090FC039B5B07044604D5DDE906235D
S315000022E8C5E90023CCE79DED040A04F09BF8C5E98F
S315000022F80001C5E70A4803F023FF7BE7F808FF1F3C
S315000023081009FF1F5C4B01005D9200000E3D0100A5
S31500002318640DFF1FFC08FF1F153D01002E3D01003F
S315000023283E3D010038B504460B480D4603F0FEFE57
S315000023382368013323606DB9084AD278934209DBD2
S31500002348074803F0F3FE07F069F8064803F0EEFEC7
S315000023580123236038BD00BF0B3D0100300FFF1F6E
S315000023684E3D0100603D0100104B1B6810B51BB1C6
S315000023780F4B42F20B721A6003F044FE0D4B002419
S3150000238801201C7004F094F90B4B1C700B4B0C4C81
S315000023985869B0F5704F02D0204404F0D1FE237876
S315000023A8012B04BF074B1C6010BD00BF6008FF1F50
S315000023B81402FF1FBC0FFF1FB00FFF1F300FFF1FB8
S315000023C800080010AC0AFF1F38B51D4C1D4B2068CD
S315000023D81B7802781C4D9A420DD11C4C226812B902
S315000023E81B4803F0ADFE22681A4B03EB421353F861
S315000023F81C3C2B6038BD184903F064FE60B1174CCD
S31500002408226812B9164803F09BFE2268154B03EBA7
S31500002418021353F80C3CECE7206804F0D1FA124B8F
S315000024281B6813B1114803F08BFE114C226812B9D0
S31500002438104803F085FE104B00221A702368D8E76F
S315000024481009FF1F570DFF1FAC0AFF1FFC05FF1FD2
S31500002458743D01000006FF1F063F01009004FF1FA0
S315000024688D3D01009404FF1F6008FF1FA53D010074
S315000024783808FF1FBA3D0100B00FFF1F08B50A4B09
S315000024880A4C186804F09CFA6169094808F01CFEB1
S3150000249803F0F2FD074A00231370237008F070FE5C
S315000024A805480121FFF78CFD1009FF1F300FFF1F9C
S315000024B800080010BC0FFF1F500AFF1F08B5044B89
S315000024C8186804F07DFABDE80840002003F006BD50
S315000024D81009FF1F10B50C4B0C4A18680C4C0378F2
S315000024E89A5C12F0030F01D15F2B06D106F036FC79
S315000024F8084B206000221A7010BD05F025FC01214A
S3150000250803F01EFFF4E700BF1009FF1F755D010009
S31500002518AC0AFF1FB00FFF1F2DE9F843204B214ED1
S315000025281A78214B34681B689A4203D11F4B1868E6
S3150000253804F046FADFF884901D4FDFF88480012501
S3150000254820464A46002104F02DF83B7804460078D8
S31500002558834212D198F800C0611C0B4611F8012B72
S3150000256812B162450B46F8D1013B13F8012F202A18
S31500002578FBD00AB1272A00D101350E4B1B788342BE
S3150000258803D00D4B1B788342DAD1013DD8D12346BF
S3150000259801341A78002AFAD13360BDE8F88300BFFF
S315000025A80409FF1FAC0AFF1F1409FF1F1009FF1FAC
S315000025B80B09FF1F0709FF1F0809FF1FCA3D010076
S315000025C85B0DFF1F08B5044B186804F0F9F90348BA
S315000025D80121FFF7F5FC00BF1009FF1F500AFF1F76
S315000025E82DE9F04F2DED028B0023CFB0CDE9023354
S315000025F8B04B02A9186805F067FB029BDE074CBFC3
S3150000260890ED008A9FEDAC8A5D0748BFD0E9009A35
S3150000261803F007025CBF4FF000094FF0000A9C0761
S315000026280146029202D50EA804F010FAA34DA44B57
S315000026382E681C680127A34A204603A903F0B2FFA7
S31500002648A14A037812789A42A04A127808BF01373D
S315000026589A4204467BD1012F79D1039B2B600DF159
S3150000266810080134A34614F8013B202BFAD0029B2C
S315000026789749C8F80030584603F024FD0646002856
S3150000268840F044819BF900309BF80040002B80F213
S315000026988980904B1B687E33A342C0F283808E4AA2
S315000026A8A4F180030C2101FB03231B79980679D535
S315000026B88A4806F035FA844274D089489BF8004067
S315000026C806F02EFA84426DD09BF80030202B5C462B
S315000026D80BF1010BF8D019064DD57E4A12687E32E9
S315000026E89A4248DB7C49803B0C2202FB0312127992
S315000026F8920640D55C460993029BD80748BF8DEDE4
S31500002708058A590748BFCDE90A9A9A0744BF0EAB0E
S3150000271807930DF1240BDBF80030FF2B2FD1D8F8E7
S3150000272800305B0702D46F4803F00AFDDDE90A238F
S3150000273813432ED12046044601302378202BFAD0A5
S3150000274823782C2B8DD0204604F03AF92E60664A61
S31500002758237812789A4240F0CB80012F40F0C88047
S315000027680134204604F02CF92046034601301A7835
S31500002778002AFAD112E05B4803F0E2FCBCE72046E7
S31500002788CDE900B807AB0AAA05A905F031F9044650
S31500002798C1E7234601341A78002AFAD1484A2E603E
S315000027A813605BE00123CDE900830AAA07AB05A9FC
S315000027B8584605F01FFA0378202B0446834600F195
S315000027C80100F8D0494A029912789A424BD100235F
S315000027D8C8F800100CAACDE9008306A908AB05F0D5
S315000027E809FA02990446C8070DD5DDED057AF4EE17
S315000027F8C87AF1EE10FA06D8DDED067AF4EEC87A54
S31500002808F1EE10FA22DA4A070BD5DDE90A239145DB
S315000028187AEB030305DBDDE90C234A4573EB0A0370
S3150000282814DA8B0706D42046044601302378202B79
S31500002838FAD085E707990EA805F05DFE0028F2DBB9
S3150000284808990EA805F057FE0028ECDC224601344C
S315000028581378002BFAD11A492B600A604FB0BDECE9
S31500002868028BBDE8F08FC80706D5DDED057AF4EED4
S31500002878487AF1EE10FA0FD04A0705D5DDE90A23A2
S31500002888534508BF4A4507D08B077FF559AF0799C7
S315000028980EA805F030FE30B95A460BF1010B137835
S315000028A8002BF9D1D7E75C460BF1010B2378202BD7
S315000028B8F9D045E71009FF1F000000006008FF1F58
S315000028C8AC0AFF1FDC3D01000C09FF1F0009FF1FB2
S315000028D8F33D0100F808FF1F5C4B0100F63D0100BF
S315000028E8F83D01000E3D01000109FF1F5C0DFF1FA9
S315000028F8084A12789A427FF49EAE013F7FF49BAE57
S31500002908234601341A78002AFAD147E70BF1020B5D
S31500002918DAE600BF0909FF1F2DE9F0410E4DDFF881
S31500002928448028680D4E0E4F01244246002103F0CC
S3150000293839FE327803789A423A7808BF01349A42C7
S31500002948F3D1013CF1D1034601301A78002AFAD1B5
S315000029582B60BDE8F08100BFAC0AFF1F0C09FF1F02
S315000029680909FF1FDC3D01002DE9F04FADF22C4DA2
S315000029786C4B019306AFA7AE33466B48009747AA40
S31500002988632103F041FF3B68022B26DD3468237878
S31500002998232B06D1601C306005F0D6F904460225C3
S315000029A820E0222B19D173681B782C2B01D03B2BE6
S315000029B813D12046FFF70CFB2044002400F8014CF5
S315000029C830680130306003F0B1FB73681B783B2B2D
S315000029D8E5D1564803F0AAFBE1E7544803F0A6FB05
S315000029E8002425463B685B1B002B02DC504803F09D
S315000029F8A7FB20464F494F4CDFF844A1DFF844B106
S31500002A080BF0C0FB3B68AB4203DC0DF22C4DBDE876
S31500002A18F08F56F825300DF11C09CDF814901B7867
S31500002A282C2B4FD03B2B4DD02346197820291C46FA
S31500002A381A4603F10103F8D071B122294CD119467F
S31500002A48059811F8012B0AB1222A3DD11C4613F824
S31500002A58012B0AB12C2AF9D1059B0021197056F8C9
S31500002A68250005F0B5F9DAF80020DBF8003003EBAD
S31500002A788213804693F82030980602D52E4803F034
S31500002A885FFBDAF80020DBF8003003EB82130393D0
S31500002A9893F82020910730D54846FFF799FA039B0B
S31500002AA893F83230984202D9244803F049FB494644
S31500002AB840460FF037F9404603F0AEFF23782C2B3B
S31500002AC808BF013401359DE7431C059302700B4688
S31500002AD8B5E7481C05900B70144612F8013B05999A
S31500002AE80BB12C2BF5D1059B4B45B5D913F8012C09
S31500002AF8202AB1D1013B0593F5E7530707D50A22EA
S31500002B0805A948460FF0D8FFC8E90001D6E74846A8
S31500002B180FF02AF851EC100BFEF798FEC8F80000E3
S31500002B28CCE700BFFA3D01001009FF1FFD3D01007B
S31500002B380E3D01004809FF1F153D01002E3D01000D
S31500002B48FC08FF1F640DFF1F08B5044B186803F047
S31500002B5837FF034B01221A6008BD00BF1009FF1F8B
S31500002B688C04FF1F08B5044B186803F029FF034BB4
S31500002B7800221A6008BD00BF1009FF1F8C04FF1F42
S31500002B882DE9F3412C4E2D49306803F09BFA344663
S31500002B98054628B12A4B01221A6002B0BDE8F08129
S31500002BA82849306803F08EFA10B1254B1D60F4E70A
S31500002BB82549306803F086FA002837D0336804338D
S31500002BC8336020680378202B2BD06BB3272B2BD0B0
S31500002BD87F22002105F0D2F81C4D1D4E2C681D4F92
S31500002BE8241A48BF803406F101082B68A342D4D0C2
S31500002BF85B2357F82400337002F09AFF0A23024633
S31500002C080093C317404602F0B5FF134910480FF06A
S31500002C186DF801340E4803F089FA802CA8BF002409
S31500002C28E3E701302060CCE77F20D5E70B4802B008
S31500002C38BDE8F04103F084BA1009FF1F9350010064
S31500002C488C04FF1FAF460100003E01008804FF1FE9
S31500002C584809FF1F8802FF1F053E01003E3D01008F
S31500002C682DE9F04FAF4BF1B01A78039322B9AE486D
S31500002C7805F088FC039B1870AC4B04931A7822B9AC
S31500002C88AB4805F07FFC049B1870AA4BAA481B7832
S31500002C988DF81830A94B1B788DF81930A84B1B787E
S31500002CA88DF81A3006AC002308ADE37010AA09ABFC
S31500002CB801940095072103F0A7FD2B68042B0BDD73
S31500002CC8062B09D00A9B1A7823789A4204D10C9BC2
S31500002CD81A7863789A4202D09A4803F031FA2B6838
S31500002CE8062B06D0072B07D10E9B1A78A3789A4293
S31500002CF802D0954803F024FADDF8248098F80030CD
S31500002D08202B01D108F10108002401E008F803404E
S31500002D184046FFF75DF998F80030824623B1431E16
S31500002D2818F80320202AF1D000210998874E884CEC
S31500002D3805F04EF821680746306801EB801191F8D6
S31500002D482010890602D5834803F0FAF93268236809
S31500002D5803EB821393F8203002939A0703F00709CE
S31500002D6802D57D4803F0ECF97C4C7D4B20681E6843
S31500002D787C4A0021884212DD9368BB4240F0AD8050
S31500002D88537BB34240F0A980764B013803EB4113DD
S31500002D98884203F1200300F38780704B18606F4B5D
S31500002DA81B680A2B02D1704803F0CAF923686D4ED6
S31500002DB86B490B98096806EB431201332360029BA3
S31500002DC89760DB0782F80C90517340F1908004F00D
S31500002DD89FFF23680D9887ED000A03F1FF3904F079
S31500002DE897FF06EB491383ED040A2B68072B236824
S31500002DF876D10F985D1E04F08BFF06EB451383ED25
S31500002E08060A2368594A0292013B156823605B014A
S31500002E18691CF1504FF00109554A284607A903F0E5
S31500002E28C1FB039A037812789A42049A127808BF6B
S31500002E3809F101099A420546EED1431C9B46013326
S31500002E489BF8002005938AB152464146584605F03C
S31500002E586FFB059B0028F1D11BF80A30454A9A5C9E
S31500002E68520703D15F2B01D02E2B02D1B9F10109EC
S31500002E78D2D1206806EB401143010A7B4D60540706
S31500002E8840F18580D1E90623002A73F10003D7E9CA
S31500002E980067D1E9042376DBB242BB41C0F29880D1
S31500002EA82E4B013018609AE0D3E904BC1A6843F83F
S31500002EB8202C5A6843F81C2C43E904BC9A6843F84A
S31500002EC8182CD3E906BC1A7B03F8142C5A7B03F892
S31500002ED8132C43E902BC01315AE70131203249E794
S31500002EE806EB43134FF07E5243F8082C89E704F0AB
S31500002EF82BFF2368C7E900010D9803F1FF3904F099
S31500002F0823FF2B6806EB4919072BC9E90401236837
S31500002F1832D10F985D1E04F017FF06EB4513C3E97F
S31500002F2806016EE76007FF1F464601003008FF1FCF
S31500002F38073E0100560DFF1F1009FF1F5C0DFF1FFE
S31500002F485A0DFF1F0C3E01000E3D0100FC08FF1F35
S31500002F58640DFF1F153D0100273E0100FC05FF1FFC
S31500002F68E408FF1F0006FF1F383E0100AC0AFF1FDA
S31500002F78523E0100755D010006EB43130120002156
S31500002F8843E902013DE7964277EB030386E7D1ED75
S31500002F98067AF5EEC07AF1EE10FA08DBD7ED006A8C
S31500002FA891ED047AF4EEC76AF1EE10FA10DCF5EE4C
S31500002FB8C07AF1EE10FA7FF573AF1E4497ED007AEA
S31500002FC8D6ED047AB4EEE77AF1EE10FA7FF568AF3B
S31500002FD82B4601351A78002AFAD1029A136071B085
S31500002FE8BDE8F08F2DE9F04FADF5057D754B0193E2
S31500002FF810AF05AE744800963B4624AA142103F088
S3150000300803FC0024DFF8D09125460DF11808336833
S31500003018AB421FDCDFF8C4B1DFF8B08104F1FF3939
S315000030280026DA46DBF8001054BB674B674A1F6870
S3150000303825468D4228DA536801331846013390F83D
S3150000304800C0BCF1200FF8D0874202F120021ED042
S315000030580135EEE7EA0757F8250007D503782C2B44
S3150000306802D0484603F06CF80135D0E74FF40071FA
S3150000307804F0AEFE04F1010A48F824005446F3E7CA
S315000030884D1E06AA002D46DA514803F059F808EBFA
S31500003098451C4FEA451E9CF80C20DCF8081053071F
S315000030A848D5D1E90027DCE90630D21847EB0003FA
S315000030B802920393DDE90223C1E90023DCE9060154
S315000030C8002871F10003DCE90401DDE902232EDBA7
S315000030D8904271EB030351DADAF800200EEB08038D
S315000030E8013AAA4203F120034DDCCAF8002074B164
S315000030F806AB03EB8602314649455DDB631EA642F5
S31500003108B8BF1E4609F1FF391C46002B8AD10DF5BA
S31500003118057DBDE8F08F08EB45134E46996852F8D1
S3150000312826309942B3D0013EF9D2013DAAE7824240
S315000031388B41D0E79CED067AD1ED007A77EE877A57
S31500003148C1ED007A9CED067AB5EEC07AF1EE10FA7A
S3150000315806DBDCED046AF4EEE67AF1EE10FABBDC87
S31500003168B5EEC07AF1EE10FA08D508EB0E0292ED2C
S31500003178047AF4EEC77AF1EE10FAADD4154B58F886
S315000031880E201A60C3E7196843F8201C596843F8EB
S315000031981C1C996843F8181C197B03F8141C597BE6
S315000031A803F8131CD3E9040143E90401D3E9060132
S315000031B8013543E9020194E7536842F8043B0131BB
S315000031C89AE700BF064201001009FF1F0006FF1F0D
S315000031D8633E0100AC0AFF1F0E3D0100FC05FF1F00
S315000031E82DE9F74F5848594C05F0CCF9584BD3F808
S315000031F800A05FFA80F8C24599467BD1554805F08C
S31500003208C1F9D4F800B0C7B2534C544E544822689A
S31500003218D6F800C0002105468A420DDD836863455D
S3150000322800F1100040F08C8005EB0113501E884217
S3150000323803F1100376DC206023680A2B02D1494883
S3150000324802F07EFF236830681A0105EB031345F880
S3150000325802B0454A986012681A73444A4FF0010B47
S3150000326801A903F09FF9D9F8003001783F4A99423D
S3150000327808BF0BF1010BB942F2D1BBF1010BEFD13B
S3150000328823681A0105EB0313C245586018D0AB58DA
S31500003298B3B1013003785AB2002A074600F101009B
S315000032A8F8DC334A12789A4202D1324802F048FFD3
S315000032B8314B3A781B789A4202D1304802F040FFE7
S315000032C823685A1C1B012260E85880B104F020FDCF
S315000032D8B5EE400AF1EE10FA09D12368013B05EB79
S315000032E8031523606B68336033681A7852BB03B0E2
S315000032F8BDE8F08F224805F045F91D4B1978C7B28D
S315000033082268137853B18B4202F1010004D102F10D
S31500003318010BC4F800B077E72060F1E70029F6D082
S315000033289B4671E71A6843F8102C5A6843F80C2C28
S315000033389A6843F8082C1A7B03F8042C013176E7BF
S31500003348013169E70133CEE77E3E01001009FF1F10
S315000033581409FF1F843E01009004FF1FAC0AFF1FDB
S315000033689404FF1F8E3E0100E408FF1FB03E0100D3
S315000033785E0DFF1FC13E01005D0DFF1FD73E010018
S31500003388893E01002DE9F843334E344C344AD6F8C9
S3150000339800C0206800251746AC4504DCBDE8F843A4
S315000033A8304802F0CDBE536801339E4613F8011B20
S315000033B82029FAD0704502F110024BD14FEA0518C0
S315000033C857F80830002B35D10B062BD5264B1B7822
S315000033D88B4210D10130206004F09AFCB5EE400A09
S315000033E8F1EE10FA14BF4FF001094FF00009B9F1D8
S315000033F8000F15D018E01D4B1B788B420DD10130FC
S31500003408206004F085FCB5EE400AF1EE10FA0CBF18
S315000034184FF001094FF00009E9E7154802F090FE60
S31500003428356005E003F0CCFA4744124BBA681A60D7
S31500003438BDE8F883184604F06BFCB5EE400AF1EED9
S3150000344810FA206814BF4FF001094FF0000903F085
S31500003458B7FACCE701359FE79004FF1F1009FF1F55
S315000034689404FF1FEE3E01005E0DFF1F5D0DFF1F5A
S315000034780E3D0100AC0AFF1F10B50D4C236813B9A9
S315000034880C4802F05DFE23680B4A013B236002EB01
S3150000349843130A4C5B682360094B186803F090FADB
S315000034A823681A7802B910BD01332360F8E700BF14
S315000034B8FC05FF1F743D01000006FF1FAC0AFF1F35
S315000034C81009FF1F10B50D4C236813B90C4802F0FC
S315000034D837FE23680B4A013B236002EB03130A4CB1
S315000034E85B682360094B186803F06AFA23681A7840
S315000034F802B910BD01332360F8E700BF9004FF1F2F
S315000035088D3D01009404FF1FAC0AFF1F1009FF1F21
S3150000351808B5084B1868037853B1272B08D004F070
S31500003528C9FF054B00221A60BDE8084002F008BE34
S315000035380248F9E71009FF1F6008FF1FBD51010087
S3150000354808B5054B6FF000421868002104F016FC18
S31500003558BDE808400EF072BB1009FF1F214B1B681F
S315000035682DE9F04713B1204802F0EAFD1F4B204A27
S3150000357819781268914299462DD11E4805F002F82D
S31500003588C5B21D48184FDFF878A004F0FBFF1B4BA7
S315000035981C68C6B298463A462046002103F002F84F
S315000035A899F8002003789A42044605D09AF8002034
S315000035B89A4201D0B34202D1384602F0C1FD2378BF
S315000035C8AB42E8D1234601341A78002AFAD1C8F862
S315000035D80030BDE8F087084804F0D4FFC5B20548B6
S315000035E8D0E700BF6407FF1F093F01000D09FF1F51
S315000035F81409FF1F253F01002D3F0100AC0AFF1FDC
S315000036080A09FF1F38B5184C2368312B02DD174805
S3150000361802F096FD164A23681168164A42F82310E6
S315000036285A1C2260144C154A216842F82310144A81
S31500003638136801331360134B134A186803789A5CAE
S3150000364812F0030F254601D15F2B06D105F086FB44
S3150000365828600E4B00221A7038BD04F075FB012154
S3150000366802F06EFE2060F4E76407FF1F3A3F010090
S315000036786008FF1F3405FF1FAC0AFF1F6807FF1FFE
S31500003688E408FF1F1009FF1F755D0100B00FFF1F3B
S3150000369838B5124B124C1868124D03F091F923688D
S315000036A81BB1013B55F8233013B90F4802F048FD0A
S315000036B80E4B1868421E1A6002F010FC0C4B0122D1
S315000036C81A6023680B4A013B236055F823101160E2
S315000036D8094A52F82320094B1A6038BD1009FF1F02
S315000036E86407FF1F6807FF1F503F0100E408FF1F1C
S315000036F80811FF1FAC0AFF1F3405FF1F6008FF1FD4
S3150000370808B5094B186803F05BF9084B1B6823B129
S31500003718074A013B52F8233013B1064802F010FD60
S31500003728054B064A1A6008BD1009FF1F6407FF1FEC
S315000037386807FF1F503F0100AC0AFF1F9E3C0100AF
S315000037482DE9F04FADF69C0D964C9748019408AEBE
S315000037580DF5B0673B460096A0AA632103F054F81E
S315000037683368039413B9914802F0EAFC0024DFF8A1
S315000037785C82DFF85C9225463368AB423EDC8C48B7
S315000037888C4F04F0FFFE3D680795C3B202932B7871
S315000037980497FF2B02D1884802F0D2FCDFF8348266
S315000037A80026079B1A780AB901330793079B1B78EB
S315000037B8013BDBB2FD2B02D97F4802F0C1FC079B17
S315000037C81A78012A02BF5A1C07921D46079B1A78C7
S315000037D8022A01D103330793079B1A78202A40D07F
S315000037E8032A40D0079B02991A788A4245D0079B3C
S315000037F81A78002AD5D001330793F8E715F00101A6
S3150000380857F8250007D003782C2B02D0674802F01A
S3150000381897FC0135B0E704F0DBFA0AABD8F80020CC
S3150000382843F82400D9F8003003EB821393F82030CC
S315000038389B0602D5614802F083FCD8F80020D9F827
S31500003848003003EB82133CA993F8202002F007020C
S3150000385841F8242093F832206EAB43F82420013433
S31500003868D7E70133B7E75A78023213440793079B21
S315000038781A78202AB6D10133F8E7049A156001337D
S315000038880793079B1A78202AF9D00AB1272A04D168
S315000038984B4B49481D6002F053FC039B01930DF105
S315000038A824090DF20C7A534607A8CDF800900DF5B9
S315000038B88062632102F0A8FFD9F80030D80704D443
S315000038C83F4B3A481D6002F03BFCB44203DC0DF660
S315000038D89C0DBDE8F08FD8F80030D9F80020934247
S315000038E80CDD079B13F8012C2AB91978012902D88F
S315000038F8C8F8002055E701330793F2E7304A5AF82B
S31500003908230015603CAA0AAB52F8262053F8267005
S3150000391891073BD50278222A18D0421E2948BB4671
S3150000392812F8013FABEB070CC3B1272B16D0A3F156
S31500003938200EBEF15E0F04D9059202F001FC059A2D
S31500003948204892F800C00BF801CBE9E7BB4610F80F
S31500003958012FABEB070C0AB1222A14D16EAA52F832
S315000039682620624502DA184802F0EAFB00228BF8A4
S315000039780020384603F050F8D8F8003002330136F4
S31500003988C8F80030A1E70BF8012BE0E7530704D588
S3150000399804F0DAF9C7E90001EEE704F0B9F987EDB2
S315000039A8000AE9E7064201001009FF1F0E3D010063
S315000039B8653F0100EC08FF1F6A3F0100153D010045
S315000039C86008FF1F7A3F01002E3D0100FC08FF1F1B
S315000039D8640DFF1FE808FF1F38B5124B124C186814
S315000039E8124D03780BB1272B0CD1114B1149124AF2
S315000039F85B69096813448B4288BF1346236000231A
S31500003A082B6038BD0D4A9A5C920701D15F2B03D112
S31500003A1805F0A4F92060F2E704F096F9012102F016
S31500003A288FFCF7E71009FF1FEC08FF1FE808FF1FC8
S31500003A38300FFF1F6008FF1F00080010755D0100AA
S31500003A48F0B5E7B03A4B019302AF03AD2B463948C0
S31500003A58009706AA032102F0D7FE3B6833F002035B
S31500003A6802D1354802F06CFB3B68032B5CD1D5E9E3
S31500003A78000302781B78232A47D12C2B47D1013023
S31500003A88286004F061F9044602263B689B1B012B5B
S31500003A9802D0294802F054FB55F82600274F284D36
S31500003AA8002104F095F93A682B6803EB8213064661
S31500003AB893F820309A0602D5224802F041FB3A686C
S31500003AC82B6803EB821393F820309B0702D41E4819
S31500003AD802F036FB1D4920460AF054FB1B48FEF748
S31500003AE877FA3A682B6803EB821393F832309842D8
S31500003AF802D9174802F024FB144930460EF012F991
S31500003B08304602F089FF67B0F0BD2C2B04D03B2B62
S31500003B1802D0094802F014FB286804F047F900218E
S31500003B2802F05EFF0024AFE700242646ADE700BF9B
S31500003B38FA3D01001009FF1F0E3D0100FC08FF1F9A
S31500003B48640DFF1F153D0100273E01004809FF1FB0
S31500003B582E3D0100F0B55D4C5D492068ADF5497D07
S31500003B6802F0B0FA054668B10378302B07D14278DF
S31500003B78584BD35C580702D4574802F0E1FA0DF5C2
S31500003B88497DF0BD2068554902F09CFA0446002894
S31500003B9832D0534902F096FA10B1524B1D60EEE747
S31500003BA8514B52491860524B1870204602F08AFA57
S31500003BB80028E4D14F49204602F084FA20B1494B47
S31500003BC84FF0FF321A60DAE74B49204602F07AFADC
S31500003BD878B10378434C0BB1272B02D1022323601B
S31500003BE8CDE742F21072012104F0C8F801302060D6
S31500003BF8C5E7424802F0A4FA414B34481B788DF8D1
S31500003C080C30404B1B788DF80D3003AC2C2304AFD9
S31500003C1865AD638005AA2B4601940097632102F0DF
S31500003C28F3FD3B68022B07DD6B6822781B789A4206
S31500003C3805D062789A4202D0304802F081FA3B6891
S31500003C48D90702D42D4802F07BFA2868FF22002102
S31500003C5804F094F80646002891D03B6803EBD3732A
S31500003C68B0EB630F8BDC6B68274F1A7863789A4240
S31500003C7816D1264C2368312B02DD254802F060FA5E
S31500003C88244A23681168244A42F823105A1C2260E1
S31500003C98224A396842F82310214A1368013313600F
S31500003CA855F836000B4A03789A5C920701D15F2BC8
S31500003CB806D105F053F81B4B386000221A705EE7F0
S31500003CC804F042F8012102F03BFBF4E71009FF1F5C
S31500003CD88C3F0100755D0100903F0100AB3F01007C
S31500003CE8B13F01008402FF1F8002FF1FB73F01009A
S31500003CF83D02FF1FBD3F0100C43F01000E3D01000C
S31500003D08590DFF1F580DFF1FAC0AFF1F6407FF1F41
S31500003D183A3F01006008FF1F3405FF1F6807FF1FB1
S31500003D28E408FF1FB00FFF1F70B50C460F49054684
S31500003D38164602F0C7F910B11423236070BD0C496A
S31500003D48284602F0BFF908B11223F6E709492846C2
S31500003D5802F0B8F908B11123EFE716B9064802F0E0
S31500003D68EFF9064B1B7823602846E7E7C93F0100B1
S31500003D78D13F0100D83F0100DE3F01008508FF1F43
S31500003D8830B593B00446039109A8274915460DF0A6
S31500003D98C9FF039B13F0020103AA14D00123CDE93E
S31500003DA8002304A9204605AB06AA03F023FF0599BC
S31500003DB80446284602F04AFE09A91B480DF0B2FF40
S31500003DC8204613B030BD13F0010314D0CDE900210D
S31500003DD805AB06AA204604A903F00CFF039BDA07E5
S31500003DE8044602D5049B2B60E6E7DDE90601FDF7EC
S31500003DF84DFE2860E0E7CDE90023204605AB06AA7C
S31500003E0804A903F0F7FE039B5B07044604D5DDE926
S31500003E180623C5E90023CFE79DED040A02F002FB5D
S31500003E28C5E90001C8E700BF6408FF1F2DE9F04F88
S31500003E387A4B7B491A6809781078884208BF01329C
S31500003E48ADF55F7D08BF1A601868012207A9FFF75C
S31500003E586BFF079B049309AC724B0890019300947F
S31500003E687BAB1BAA632108A802F0CEFC2368DC07FB
S31500003E7802D46D4802F064F94FF000094E46099BDA
S31500003E88B34203DC0DF55F7DBDE8F08F7BAC002106
S31500003E9854F8260002F010FB614B644A1B7812782E
S31500003EA80890DDF8208098F8007047B19F4200F02E
S31500003EB8A780272F03D0974240F09E8017460023FD
S31500003EC888F80030564B1B78BB4213D1049BD806A2
S31500003ED802D5574802F034F9089807A9013001229B
S31500003EE80890FFF721FF079B0890D90602D451488E
S31500003EF802F026F95048514D04F044FB2B689842CD
S31500003F0809D14F4B1B6813B94E4802F019F9079BA4
S31500003F1843F4805307934C4804F034FB2B689842CB
S31500003F2876D1474B1B6813B9464802F009F9474949
S31500003F380B78002B66D00AA80DF0F4FE444801233E
S31500003F480AAAD15C0A5C12F007025DD15F295BD030
S31500003F582E2959D00AA9CA5454F826100AA80DF0D1
S31500003F68C5FE4FF0010907990AA841F4806103F0DC
S31500003F782FFF079B0393002840F04B8143F4006111
S31500003F880AA803F025FFDFF8E8B03249DBF800405D
S31500003F980B6803EB8413054693F8203003F00703F8
S31500003FA8079388F80070DBF800200B6803EB821390
S31500003FB84FEA841AB3F92230013303D1264802F0B6
S31500003FC8BFF824490968DBF8003001EB8313B3F91D
S31500003FD822C0BCF1000F03DD204A9D6B0120107042
S31500003FE81F4BDFF888E01F68DFF87C8007F17E0347
S31500003FF805934FF00C0B3FE008F10101089150E7DB
S315000040081F465CE7174996E70133212B98D1A3E7AA
S3150000401854F826100AA80DF085FEA4E71009FF1F1C
S31500004028540DFF1F064201000E3D0100560DFF1FED
S31500004038EC3F0100DE3F0100014001001409FF1FAB
S31500004048E408FF1F07400100144001003C08FF1F59
S31500004058755D0100640DFF1F1B4001003C02FF1F38
S31500004068F808FF1F6408FF1F5D9200005C4B010003
S31500004078FC08FF1F01300890089803786BB1272BBE
S315000040880BD01A065FD5059A9A425CDBA3F180022B
S315000040980BFB02E292684245ECD113F0800F664AA8
S315000040A854D07E379F4251DB644F803B4FF00C0E55
S315000040B80EFB03739B689F1A7A427A41002A54D0F2
S315000040C80130089008980378202BF9D0BCF1000F2E
S315000040D840F39A80282B40F09780594B1A680AF1CA
S315000040E822030B4432315144012733F9020B20B124
S315000040F8801A994200FB0777F7D1DFF854810898B0
S31500004108079901302A460890FFF73AFE079B089060
S31500004118980706D5D8F80020524492F83220013282
S315000041281544D90748BF04355A0700D50835089AF3
S315000041381378202B0DD0013F002F0DDD2C2BDED060
S31500004148292B0FD00AE0DEF80820A4E7DEF80830AD
S31500004158B1E701320892EAE7292B02D0394801F083
S31500004168EFFF17B1374801F0EBFF049B0793B9F14E
S31500004178000F58D0039B7BAD43F4A05155F8260099
S3150000418803F026FE20B155F826102F4801F0D8FF77
S31500004198039BDFF8BC8055F826002C4F43F4C0512A
S315000041A803F016FED8F80020A50102EB8414B4F932
S315000041B82230002B03DC94F820309B0735D509F014
S315000041C8D9FAD8F800205319996B3B6802EB831388
S315000041D89963D8F8003039685A1903EB811392F8B5
S315000041E8201041F0080183F8201092F8321083F865
S315000041F8321002F122012233323231F9020B23F84E
S31500004208020B8A42F9D10EE007992A46FFF7B8FD54
S31500004218ABE7B9F1000F02D00C4B1C68AAE70A48B5
S315000042280AA901F08DFF023629E63B6802EB8313E3
S3150000423838349C63CDE700BF5D9200005C4B0100FB
S31500004248F008FF1F2C4001004A400100FC08FF1F30
S31500004258640DFF1F2DE9F047ADF5487D434B0193EB
S3150000426804AD65AE334663214148009505AA02F0C0
S31500004278CBFA2B68D90702D43E4801F061FF3E4FBE
S31500004288DFF8088100242B68A34203DC0DF5487D7E
S31500004298BDE8F08756F82400002102F00DF98146A2
S315000042A819F8013B202BFBD013F0800F334A49D075
S315000042B8334909687E31994244DB803B0C2101FB76
S315000042C803739B689B1A18BF012313B1294801F091
S315000042D837FF0023484603A9039303F0F5FC039B25
S315000042E803F0070343F403620392264A12688146E1
S315000042F822B143F4C15343F010030393DFF890A0AF
S31500004308039956F8240003F063FDD8F80020DAF87C
S31500004318003003EB8213B3F9223013B11A4801F0C7
S315000043280FFFD8F80030DAF80000039900EB831085
S3150000433890F820304B405A0706D0134801F000FF8A
S315000043480234A0E7BB68BDE7CB0744BFD9F8003005
S3150000435883634A0744BFD9E90023C0E90E238B07C4
S31500004368EED5806B494602F071FBE9E7064201008B
S315000043781009FF1F0E3D01005C4B01005D92000015
S31500004388F808FF1FE408FF1F5D400100FC08FF1F37
S31500004398640DFF1F2DE9F04FADF5537D3D4B01939D
S315000043A80DF114080DF5DE7A534663213A48CDF827
S315000043B800800FAA02F028FAD8F80030D90702D4EC
S315000043C8364801F0BDFE364F0026D8F80030B34215
S315000043D803DC0DF5537DBDE8F08F5AF8261006A8C4
S315000043E80DF0A0FC06A8FDF7F3FD06AB01382D4A33
S315000043F81B5C9A5C02F00701520703D15F2B01D0C0
S315000044082E2B1FD1DFF8A4B006A801F04BFE3B689F
S31500004418DBF8005003930024039BA34231DD06A872
S31500004428FDF7D6FD4FEA841906A905EB000E2B46C3
S3150000443873451A780BD011F801CB624505D00134C3
S315000044484035E9E706AB1954CCE70133F0E70AB182
S315000044582028F4D1A86B09F08DF9DBF8001001EBE0
S315000044680902002382F8203001F80930C2E909332D
S315000044785384D36213863B68013BA34201D13C6057
S31500004488013C3B68A34203D1074806A901F058FE40
S3150000449802369AE7064201001009FF1F6E40010026
S315000044A8600DFF1F755D01007D400100640DFF1F53
S315000044B810B5164B9B78012B01F1FF310FD1144C27
S315000044C811F8013F13B90023037010BDE25C02F036
S315000044D80302012A08BF203300F8013BF0E7022B4C
S315000044E80FD10B4C11F8013F002BECD0E25C02F027
S315000044F80302022A08BF203B00F8013BF2E700F856
S31500004508013B11F8013F002BF9D1DCE7300FFF1F03
S31500004518755D01002DE9F74FDFF894A1DFF8949156
S3150000452880468B46044601259BF80020012A03D1C4
S315000045380BF1010B0125F7E7022A3CD1BBF8012054
S315000045480A2352BA2046009392B2002301F012FBC6
S315000045582046FDF73DFD9BF80330202B0BF10306A3
S31500004568044402D0202304F8013B3378032B14D1EA
S315000045783246601E12F8013F1946F1B9E218991C35
S3150000458801331C440E443A231370337813F0DF0FBB
S315000045981EBF2023941C53700125B3461BF8017BCC
S315000045A839065CD59DB33B4803F0ECFF87420AD138
S315000045B800252570B8E75E46D7E712F8015F00F8D0
S315000045C8015F0139D9E796F90010327800291CDA1B
S315000045D8314909687E31914217DB0C21803A4A43FA
S315000045E82E4989582046FFF763FF2046FDF7F0FC61
S315000045F8044414F8012C12F8095015F0030593D059
S31500004608202204F8012B00258EE72549EAE7DAF887
S3150000461800207E32BA42A1BF0C22803F5743214A6E
S31500004628B4BF1F49D1592046FFF742FF2046FDF780
S31500004638CFFC04441C4B14F8012C12F809209207ED
S315000046481CBF202204F8012B3278197891423FF4D6
S3150000465871AF16490D78AB1A5D425D4164E72FB11B
S31500004668202F04F8017B18BF00255DE77278012A20
S3150000467804D93A2204F8012B5CE7013C14F8012C12
S31500004688202A01D14445F8D800225846227003B0A2
S31500004698BDE8F08F8B4001003408FF1F1448010065
S315000046A8BD5101005C4B01005B0DFF1F550DFF1F3F
S315000046B8F808FF1F755D01002DE9F041C2B001231E
S315000046C8184FDFF86480019304460E462278531E7D
S315000046D8DBB2FD2B14D8012AFBD1214602A8FFF72D
S315000046E819FF02AD044615F8013B63B9314601A826
S315000046F8FDF718FE2378002BE8D16378002BE5D167
S3150000470842B0BDE8F0813A79D8F800309A4203DC25
S31500004718314601A8FDF706FE15F8010C08F032FD32
S31500004728E1E700BF300FFF1FB80FFF1F38B50B4D6D
S315000047380B49286801F0C6FC044640B10948012126
S31500004748FFF7BAFF2046BDE8384002F039B90146FE
S315000047580448FFF7B1FF2868F5E700BF1009FF1FF7
S315000047688F40010000080010F0B585B0044604F03B
S3150000477873FE314B10221A6020460578202D044618
S3150000478800F10100F9D029063AD52C4A1268A5F19C
S315000047987E03934234DC2A4FA5F180060C2303FBE3
S315000047A806731B79DA062BD5264803F0EBFE8542FD
S315000047B816D1254801F0C4FC244B14F8012B1A60C5
S315000047C8234B1C601A681178202916D00C2303FB8A
S315000047D80676B368984705B0BDE8F04008F0E4BF30
S315000047E81C48257803F0CEFE8542E2D01A48257883
S315000047F803F0C8FE8542DFD1DBE701321A60E1E744
S31500004808164BEB5C9B0704D15F2D02D0144801F0D0
S3150000481897FC0021204601F0F7F8021E08DB00236A
S31500004828CDE9013300932146184602F01BF9D2E779
S315000048380C4801F085FCCEE7500CFF1F3408FF1F1B
S31500004848144801007E3E0100934001001409FF1F31
S315000048581009FF1F6646010046460100755D010006
S315000048687A3F01003E3D01002DE9F0478A4BDFF80B
S3150000487844921B78DFF84482FAB000248DF80C3095
S31500004888864B04941B788DF80D3003AD2746AC7023
S3150000489805AE0195009606AB1AAA1421484601F002
S315000048A8B3FF2CB13368022B02DD7D4801F048FCCA
S315000048B83368012B04DD079A11782A78914208D0CB
S315000048C817B1784801F03CFC774B1B782B70012711
S315000048D8DEE7022B07D0754A0899127809789142C3
S315000048E827D1032333603368042B06D0052B07D161
S315000048F8099B1A786B789A4202D06D4801F020FC21
S31500004908069803F005FAB5EE400AF1EE10FA336898
S3150000491834D0022B0AD0DDE907201178624A1278D2
S3150000492891420ED1634B1860FDF7D4FD7AB0BDE80D
S31500004938F087042BD7DD0A9B1B789342D3D1052336
S31500004948D0E701785C4A8A5C520707D503F0FCF980
S31500004958012101F0F5FC594B1860E7E7052B02D158
S31500004968FFF702FFE2E7534B29781B6813F8012B80
S315000049780AB18A42FAD1514A1360D7E7022B6AD1A3
S31500004988D8F80000DFF854A14D4E4E4F012404A973
S31500004998524601F007FE316803788B421AD195F822
S315000049A800C0421C134612F8011B11B1614513469B
S315000049B8F8D1013B13F8012F202AFBD042B1272A50
S315000049C806D00346184601330278002AFAD1DEE7F4
S315000049D80134DCE73A789A4209D1012C07D103461B
S315000049E801301A78002AFAD1C8F800309EE7364A0C
S315000049F812789A4203D0354A12789A421BD1012C72
S31500004A0819D101300646824610F8013B202BF9D011
S31500004A182F4B049A1A60337813B9254801F090FB96
S31500004A28C9F8006053460AF1010A1F78002FF9D128
S31500004A38C8F800302CE7274A12789A4203D0264A4B
S31500004A4812789A42A3D1013CA1D1034601301A78C3
S31500004A58002AFAD1C8E7052B0BD0164A1046136868
S31500004A6813F8011C11B91978012984D90133036097
S31500004A78F5E70A98104B0278D35C5B073FF566AFFB
S31500004A880C4B69781B6813F8012B002A3FF473AFA7
S31500004A988A42F8D16FE700BF5B0DFF1F550DFF1F58
S31500004AA8B0400100C0400100590DFF1F0B09FF1F50
S31500004AB80E3D01001009FF1F755D0100AC0AFF1FBE
S31500004AC81409FF1F0409FF1F0509FF1F0609FF1F19
S31500004AD86008FF1F0709FF1F0809FF1FCA3D0100DD
S31500004AE810B5144C1448042386B023600023CDE97E
S31500004AF8004304AA02AB006803A903F07BF8236805
S31500004B08DB0708D5DDED037A0C4BF0EEE77AC3ED4B
S31500004B18007A06B010BDDDE90423002A73F100010E
S31500004B28074902DBC1E90023F3E7524263EB43037B
S31500004B38F8E700BF500CFF1F1809FF1F2809FF1FC1
S31500004B48480AFF1F08B5084B186803F02FF90378C1
S31500004B5843B1427805490023C1E90023044B0422E6
S31500004B681A6008BD0022F5E71809FF1F480AFF1F4B
S31500004B78500CFF1F08B5064B186803F0C9F80AF071
S31500004B88FDFF044B83ED000A034B01221A6008BDA2
S31500004B981809FF1F2809FF1F500CFF1F094B10B5E6
S31500004BA81868FF22002103F0E9F8044608F00EFF12
S31500004BB8054B0122186002701B685C70034B0222C9
S31500004BC81A6010BD1809FF1FBC0AFF1F500CFF1FF3
S31500004BD808B5054B186803F0B7F8044BC3E900019C
S31500004BE8034B04221A6008BD1809FF1F480AFF1F55
S31500004BF8500CFF1F08B5064B186803F089F80BF030
S31500004C0891F8044B83ED000A034B01221A6008BD94
S31500004C181809FF1F2809FF1F500CFF1F000000007E
S31500004C2808B50D4B186803F073F810EE100AFCF778
S31500004C38F3FA07A3D3E90023FCF746FBFCF706FEC5
S31500004C48064B1860064B01221A6008BDAFF30080B8
S31500004C58F8C1631ADCA54C401809FF1F2809FF1F75
S31500004C68500CFF1F08B5064B186803F051F80BF0F7
S31500004C784DF9044B83ED000A034B01221A6008BD67
S31500004C881809FF1F2809FF1F500CFF1F2DE9F041C7
S31500004C98E8B0194B019304AC05AB08AA03210746F3
S31500004CA80094164801F0B0FD059803F04DF8236806
S31500004CB8032B06460D461DD10798FF22002103F057
S31500004CC85DF8044608F082FEDFF838803023324665
S31500004CD80093CDE901472B46C8F8000000F091FF84
S31500004CE8D8F8000001F098FE054B02221A6068B059
S31500004CF8BDE8F0810124E5E7064201001809FF1F17
S31500004D08500CFF1FBC0AFF1F1020FFF7BFBF08206B
S31500004D18FFF7BCBF0220FFF7B9BF00002DE9F0413D
S31500004D28E8B02A4B019302AC03AB2948009408AAC1
S31500004D38052101F069FD2368264D052B24D14FF482
S31500004D4880720121039803F019F8441E059803F0B0
S31500004D582DF80646079803F029F804232B6090F8E7
S31500004D6800803778A7EB08077B1CA34206DBB8F15F
S31500004D78000F03D0451C0136A74218DA164B00204F
S31500004D880021C3E900011EE0032B08D1039803F0B4
S31500004D980DF80646059803F009F80024DDE70F48E4
S31500004DA801F0CEF904232B6000231B78FFDE3019AF
S31500004DB8424629460CF01EFF01340028DCD1064B7A
S31500004DC8E517C3E9004568B0BDE8F0810642010071
S31500004DD81809FF1F500CFF1F480AFF1F6E400100ED
S31500004DE808B5084B186802F093FF0AF0E3FF10EEC7
S31500004DF8100AFCF7F1FE044BC3E90001034B042239
S31500004E081A6008BD1809FF1F480AFF1F500CFF1F2C
S31500004E1808B5074B186802F07BFF10EE100AFCF77E
S31500004E28DBFE044BC3E90001034B04221A6008BDEC
S31500004E381809FF1F480AFF1F500CFF1F10B5E6B0E0
S31500004E48144B019302AC03AB1348009406AA032142
S31500004E5801F0DAFC2368032B02D0104801F070F940
S31500004E6808F0B4FD0446039802F0A0FF0146204668
S31500004E7801F0ECFD0598FF22002102F07FFF237860
S31500004E888342074BC8BF20701C60064B02221A607B
S31500004E9866B010BD064201001809FF1F6E400100EA
S31500004EA8BC0AFF1F500CFF1F30B5E7B01A4B019321
S31500004EB802AC03AB1948009406AA032101F0A4FC2E
S31500004EC82368032B02D0164801F03AF9039802F03A
S31500004ED86DFFFF2204460021059802F04FFF237854
S31500004EE88342A8BF03461D4608F070FD0D4B1860A7
S31500004EF8237805705B1B0133234402461D44AB42ED
S31500004F0804D1094B02221A6067B030BD13F8011BA1
S31500004F1802F8011FF3E700BF064201001809FF1F48
S31500004F286E400100BC0AFF1F500CFF1F08B5064B58
S31500004F38186802F03BFF054B00780021C3E9000121
S31500004F48034B04221A6008BD1809FF1F480AFF1FF1
S31500004F58500CFF1F08B5124B2DED028B186802F096
S31500004F68D7FEB5EE400AF1EE10FAB0EE408A02D14D
S31500004F780C4801F0E5F8B5EEC08AF1EE10FA02D554
S31500004F88094801F0DDF8B0EE480A0BF0A7F8BDECC9
S31500004F98028B064B83ED000A054B01221A6008BDF9
S31500004FA81809FF1FD0400100DF4001002809FF1F34
S31500004FB8500CFF1F70B5E8B0214B019302AC03AB50
S31500004FC82048009408AA052101F01EFC2368052B39
S31500004FD827D10798FF22002102F0D0FE0446039845
S31500004FE802F0E4FEFF2201210546059802F0C6FEFE
S31500004FF8064608F0EBFC144A1060144A02211160B8
S315000050082A78B24203460ADB4CB1921B013294421B
S31500005018A8BF1446A8191C700444A0420AD168B057
S3150000502870BD032B04D00A4801F08AF80024D6E79D
S31500005038FF24D4E710F8012B03F8012FEDE700BF92
S31500005048064201001809FF1FBC0AFF1F500CFF1F6C
S315000050586E400100034B044A1A60044B01221A6091
S31500005068704700BF2809FF1FDB0F4940500CFF1F80
S3150000507808B50D4B186802F04BFE10EE100AFCF747
S31500005088CBF807A3D3E90023FCF748FAFCF7DEFBC5
S31500005098064B1860064B01221A6008BDAFF3008064
S315000050A8F8C1631ADCA54C401809FF1F2809FF1F21
S315000050B8500CFF1F08B50CF0E5FD07EE900ADFED72
S315000050C8066A064BF8EEE77A012287EEA67A83EDA2
S315000050D8007A034B1A6008BD0800004F2809FF1F15
S315000050E8500CFF1F08B50D4B186802F011FEB5EEFF
S315000050F8C00AF1EE10FA0A4B02DD0120002104E095
S3150000510809D54FF0FF304FF0FF31C3E90001054BD9
S3150000511804221A6008BD0020F0E700BF1809FF1F27
S31500005128480AFF1F500CFF1F08B5064B186802F007
S31500005138EFFD0AF081FE044B83ED000A034B0122C2
S315000051481A6008BD1809FF1F2809FF1F500CFF1F0A
S3150000515808B50E4B2DED028B186802F0D9FDB5EE99
S31500005168C00AF1EE10FAB0EE408A02D5084800F0FF
S31500005178E7FFB0EE480A0BF087F9BDEC028B054B4A
S3150000518883ED000A044B01221A6008BD1809FF1FA7
S31500005198DF4001002809FF1F500CFF1F08B5064B0A
S315000051A8186802F0B5FD0AF089FE044B83ED000A83
S315000051B8034B01221A6008BD1809FF1F2809FF1FA3
S315000051C8500CFF1F404B2DE9F74318683F4E404DE2
S315000051D803F070F9042333600378262B04465BD169
S315000051E800220023C5E9002343783A481A5C02F0F6
S315000051F80302022A08BF203B482B29D04F2B14D084
S31500005208422B2CD1013414F8013F303BDAB2012A83
S3150000521825D8D5E9001248184FEAE377524143EA00
S3150000522841033A43C5E90032EDE7013414F8013F7A
S31500005238303BDAB2072A12D8D5E90012D200DF17B6
S3150000524842EA517243EAC1033A43C5E90032EDE73F
S31500005258013414F8013FC15C11F0440F02D103B0C8
S31500005268BDE8F08301F00301D5E9006202290CBF0D
S31500005278A3F1200119464029CCBFA1F13703303BE1
S31500005288120142EA16724FEAE3793601334349EAD4
S315000052980202C5E90032DCE769460DF06BFB51EC0A
S315000052A8100BFCF7D3FA0C4B0A22186001A920460A
S315000052B80DF002FCDDE900239A4288BF0123C5E907
S315000052C8000188BF3360CAE71809FF1F500CFF1F8B
S315000052D8480AFF1F755D01002809FF1F7FB508F002
S315000052E875FB1E491E4E05460CF01CFD08F06EFBAC
S315000052F81C4B0446186802F059FD014620460CF07E
S3150000530811FD204601F07AFB1748722303703D23EE
S315000053184370214602300CF005FD012003F054F9D4
S31500005328124920460CF0FEFC0023CDE900633360E9
S315000053380F4A104903AB204602F05CFC33689B0712
S3150000534805D50399204601F081FB0B4B1C602946C5
S3150000535802480CF0E7FC04B070BD00BF540CFF1FF8
S31500005368500CFF1F1809FF1F4809FF1F570CFF1F86
S31500005378480AFF1F2809FF1FBC0AFF1F044B0549DF
S315000053881A68D317C1E90023034B04221A60704731
S315000053988002FF1F480AFF1F500CFF1F10B508F0B8
S315000053A815FB064C064920600CF0BCFC206801F091
S315000053B833FB044B02221A6010BD00BFBC0AFF1F54
S315000053C83D02FF1F500CFF1F38B50B4B0B4D1868DD
S315000053D8FF22002102F0D2FC044608F0F7FA224622
S315000053E82860202101300CF021FC2B681C70044B2E
S315000053F802221A6038BD00BF1809FF1FBC0AFF1F2A
S31500005408500CFF1F2DE9F043F3B0474B4748019373
S3150000541807AD0BAB009512AA072101F0F5F92B6829
S31500005428D80702D4424800F08BFE0DF11809002374
S31500005438C9F8003005A9CDE900930B9804AB08AA72
S3150000544802F0D8FBD9F80030990702D5394800F0A0
S3150000545877FE2B68022B38DD0D9880226FF07F01CE
S3150000546802F08CFC07462B68042B30DD0F981422BB
S315000054786FF0130102F082FC04462B68072B29D132
S31500005488119802F093FC0378054613B92A4800F0F0
S3150000549857FE6E7806F07F0608F098FAD9F80030BD
S315000054A8264DDA078046286016D59DED050A33464F
S315000054B82246394600F0F4FB286801F0ADFA204B85
S315000054C802221A6073B0BDE8F0830027CBE740F2EA
S315000054D8E734D2E72026DFE7002CDDE908230ADADD
S315000054E819461046FCF7D2FA334600EE100A224651
